:020000040800F2
:100000000000052475180008F1150008F715000810
:10001000FD1500080316000809160008000000007E
:100020000000000000000000000000000F160008A3
:100030001D160008000000002B16000839160008E5
:10004000C5180008C5180008C5180008C51800081C
:10005000C5180008C5180008C5180008C51800080C
:1000600045160008C5180008531600086116000858
:1000700075160008C5180008C5180008C51800083E
:10008000C5180008C5180008C5180008C5180008DC
:10009000C5180008C5180008C5180008891600080A
:1000A000C5180008C5180008C5180008C5180008BC
:1000B000C5180008C5180008B5160008C5180008BE
:1000C000C5180008C5180008C5180008C51800089C
:1000D000C5180008C5180008D5160008C51800087E
:1000E000E9160008C518000800000000C51800083F
:1000F000C5180008C5180008C5180008C51800086C
:10010000C5180008C5180008C5180008C51800085B
:10011000C5180008C5180008F9160008C518000819
:10012000C5180008C5180008C5180008C51800083B
:10013000C5180008C5180008C5180008C51800082B
:1001400000000000000000000000000000000000AF
:10015000C5180008C5180008C5180008C51800080B
:10016000C5180008C5180008C5180008C5180008FB
:10017000C5180008C5180008C518000800000000D0
:10018000C5180008C5180008C5180008C5180008DB
:10019000C5180008C5180008C5180008C5180008CB
:1001A000C5180008C5180008C518000800000000A0
:1001B000C5180008C5180008C5180008C5180008AB
:1001C000C5180008C5180008000000000000000065
:1001D0000000000000000000C5180008000000003A
:1001E000000000000000000000000000000000000F
:1001F0000000000000000000C5180008C518000835
:10020000C5180008C518000800000000C51800083F
:10021000C5180008C5180008C5180008C51800084A
:10022000C518000800000000C51800080000000004
:10023000C5180008C518000800000000C51800080F
:10024000C5180008C5180008C5180008C51800081A
:10025000C5180008C5180008C5180008C51800080A
:10026000C5180008C5180008C5180008C5180008FA
:10027000C5180008C5180008C518000800000000CF
:10028000C5180008C5180008C5180008C5180008DA
:1002900000000000C5180008C51800080000000094
:1002A00000000000C5180008C5180008C51800089F
:1002B000C5180008C5180008C5180008C5180008AA
:0C02C000C5180008C5180008C518000883
:1002D00010B5054C237833B9044B13B10448AFF380
:1002E00000800123237010BD740000240000000072
:1002F00040DA000808B5034B1BB103490348AFF3CC
:10030000008008BD000000007800002440DA0008EA
:1003100001F0FF01102A2BDB10F0070F08D010F8B6
:10032000013B013A8B422DD010F0070F42B3F6D1BA
:10033000F0B441EA012141EA014122F007047FF0D3
:1003400000070023F0E80256083C85EA010586EA2A
:10035000010685FA47F5A3FA87F586FA47F6A5FA66
:1003600087F68EB9EED1F0BC01F0FF0102F0070272
:1003700032B110F8013B013A83EA010313B1F8D11D
:100380000020704701387047002D06BF35460338FE
:10039000073815F0010F07D1013015F4807F02BF37
:1003A000013015F4C03F0130F0BC0138704700BF88
:1003B00053B94AB9002908BF00281CBF4FF0FF31CC
:1003C0004FF0FF3000F06EB9ADF1080C6DE904CECE
:1003D00000F006F8DDF804E0DDE9022304B0704720
:1003E0002DE9F047089D04468C46002B40F08380A1
:1003F0008A42174647D9B2FA82F242B1C2F12000CE
:1004000024FA00F09140974040EA010C94404FEAF2
:100410001748230CBCFBF8F61FFA87FE08FB16C131
:1004200043EA014306FB0EF1994209D9FB1806F194
:10043000FF3080F01981994240F21681023E3B4420
:100440005B1AA4B2B3FBF8F008FB103344EA034490
:1004500000FB0EFEA64509D93C1900F1FF3380F0E0
:100460000581A64540F2028102383C4440EA06403C
:10047000A4EB0E0400261DB1D4400023C5E90043BF
:100480003146BDE8F08702B9FFDEB2FA82F2002AF7
:1004900050D1CB1B4FEA174E1FFA87F80126B3FB4A
:1004A000FEFC210C0EFB1C3341EA034108FB0CF35C
:1004B0008B4207D979180CF1FF3002D28B4200F23F
:1004C000E9808446C91AA3B2B1FBFEF00EFB1011FD
:1004D00043EA014408FB00F8A04507D93C1900F1A4
:1004E000FF3302D2A04500F2D9801846A4EB0804DD
:1004F00040EA0C40BFE78B4209D9002D00F0B180E3
:100500000026C5E9000130463146BDE8F087B3FA60
:1005100083F6002E4AD18B4202D3824200F2B88089
:10052000841A61EB030101208C46002DA8D0C5E997
:10053000004CA5E7C2F1200320FA03F6974001FA28
:1005400002F04FEA174ED9403043030CB1FBFEF6E0
:100550001FFA87F80EFB161143EA014306FB08F168
:10056000994204FA02F409D9FB1806F1FF3C80F025
:100570008D80994240F28A80023E3B445B1A81B2F0
:10058000B3FBFEF00EFB103341EA034100FB08F31E
:100590008B4207D9791800F1FF3C73D28B4271D995
:1005A00002383944CB1A40EA064678E7C6F1200CF7
:1005B00003FA06F422FA0CF31C4320FA0CF701FAB2
:1005C00006F34FEA144E21FA0CF11F433B0CB1FB2A
:1005D000FEF91FFA84F80EFB191143EA014109FBE9
:1005E00008FA8A4502FA06F200FA06F308D96118F9
:1005F00009F1FF3048D28A4546D9A9F102092144C0
:10060000A1EB0A01BFB2B1FBFEF00EFB101147EAED
:10061000014700FB08F8B84507D9E71900F1FF3199
:100620002ED2B8452CD90238274440EA0940A7EB1E
:100630000807A0FB02894F45C64649461AD317D082
:100640005DB1B3EB0E0267EB010707FA0CFCF24059
:100650004CEA0202F740C5E9002700263146BDE812
:10066000F0872E4628460BE70646E9E61846FDE6E3
:100670004345E5D2B8EB020E69EB04010138DFE730
:100680000846D2E760468DE78146B9E7664675E7DA
:1006900030464AE7ACF1020C394413E702383C44D7
:1006A00024E700BF704700BF80B586B000AF786018
:1006B0000023FB6007F1100300221A609A8007F103
:1006C0000C030B4918460CF08DFD0346FB75FB7DB2
:1006D0009AB2FB7D07F10C0106480AF0EFFB0022FD
:1006E0000821054806F0CEF900BF1837BD4680BD89
:1006F00058DA0008600100240010025880B59EB04E
:1007000000AF01F0E1F800F031F900F0DBFB00F0A0
:1007100001FC00F0A3F900F089FB00F017FA00F0EB
:1007200035FB00F0ABFA00F0F9FA0023A7F87630B9
:100730000023BB6007F10C036022002118460CF077
:1007400049FD0023A7F86E3000233B6700237B6040
:1007500007F10803774918460CF044FD0346A7F853
:100760006E30B7F86E300233B7F86E2007F108012B
:1007700071480AF0A3FB40F2FF724FF001116F487D
:1007800002F04AFF034687F86D3097F86D30002B72
:1007900012D097F86D2007F10803694918460CF04C
:1007A00021FD0346A7F86E30B7F86E2007F1080167
:1007B0000A2361480AF082FB604801F005FE034607
:1007C00087F86D3097F86D30002B12D097F86D20B8
:1007D00007F108035B4918460CF004FD0346A7F82F
:1007E0006E30B7F86E2007F108010A2352480AF06C
:1007F00065FB0A21514801F0B1FE034687F86D30D0
:1008000097F86D30002B12D097F86D2007F1080390
:100810004D4918460CF0E6FC0346A7F86E30B7F8D1
:100820006E2007F108010A2343480AF047FB4348BA
:1008300001F088FF03469BB2BB80BB881A4607F1D4
:100840000803424918460CF0CDFC0346A7F86E3069
:10085000B7F86E2007F108010A2337480AF02EFB8B
:1008600007F108036422194639480CF0DFFB3948C8
:1008700009F0BCF9384809F0B9F901F0ABF80246C3
:100880003B6FD31A40F6B7329342F6D901220821C2
:10089000324806F0F7F8012001F0A8F806223049A6
:1008A0002B480AF0A1FB642001F0A0F800220821E7
:1008B0002A4806F0E7F807F10803062219461E4801
:1008C0000AF092FB4FF47A73A7F87630B7F87630D7
:1008D000B3F5805F02D30023A7F87630214B1B6865
:1008E000B7F876205A63154801F02CFF03469BB2F7
:1008F000BB80BB881A4607F10803144918460CF060
:1009000071FC0346A7F86E30B7F86E2007F10801B6
:100910000A2309480AF0D2FA4FF48041124806F03F
:10092000CAF84FF40041104806F0C5F801F052F83B
:100930003867A2E764DA000860010024F0010024AF
:1009400074DA000884DA000894DA0008A4DA0008EF
:100950007003002414010024D8020024001002585F
:10096000B0DA0008240300240008025880B59CB0C7
:1009700000AF07F124034C22002118460CF02AFC9A
:100980003B1D2022002118460CF024FC022006F01A
:10099000D1F800233B602F4B9B692E4A23F4404340
:1009A00093612C4B9B6903F440433B603B6800BF61
:1009B000284B9B6903F40053B3F5005FF8D1264B35
:1009C0009B6A254A23F00303936202237B6201237F
:1009D0003B6340237B630223BB640023FB6404234B
:1009E0003B6522237B650123BB650223FB65022354
:1009F0003B660C237B660023BB664FF44063FB66BB
:100A000007F12403184606F0CFF80346002B01D067
:100A100000F060FB3F237B600323BB600023FB608F
:100A200008233B6140237B614023BB614FF480631B
:100A3000FB6140233B623B1D0321184606F060FC2E
:100A40000346002B01D000F045FB00BF7037BD46C8
:100A500080BD00BF004802580044025880B58CB0E9
:100A600000AF07F1240300221A605A609A603B46E7
:100A70002422002118460CF0ADFB314B314A1A609C
:100A80002F4B4FF4A0125A602D4B08229A602C4B2A
:100A900000221A612A4B04225A61294B00221A763D
:100AA000274B00225A76264B0122DA61244B002282
:100AB00083F82020224B00229A62214B0022DA6226
:100AC0001F4B00221A631E4B0022DA631C4B0022CC
:100AD0001A641B4B002283F84420194801F06CFA79
:100AE0000346002B01D000F0F5FA00237B6207F1EA
:100AF00024031946124802F0F3FD0346002B01D0EF
:100B000000F0E8FA104B3B6006237B600623BB60D5
:100B100040F2FF73FB6004233B6100237B610023F1
:100B200087F821303B461946054801F019FE034677
:100B3000002B01D000F0CEFA00BF3037BD4680BD9B
:100B4000F0010024002002400800900C80B58EB017
:100B500000AF07F1280300221A605A609A60DA6039
:100B600007F11C0300221A605A609A603B4600227B
:100B70001A605A609A60DA601A615A619A613E4B53
:100B80004FF080421A603C4B0A225A603A4B0022D6
:100B90009A60394B40F6EF22DA60374B00221A6137
:100BA000354B00229A61344808F0C8FF0346002BF9
:100BB00001D000F08FFA4FF48053BB6207F1280395
:100BC00019462D4809F02CFB0346002B01D000F0FC
:100BD00081FA294809F090F80346002B01D000F073
:100BE00079FA1023FB6100237B6207F11C0319468D
:100BF00021480AF059F80346002B01D000F06AFAA8
:100C000060233B6000237B600023BB6000233B61CB
:100C10003B4600221946184809F0EEF90346002B1E
:100C200001D000F057FA3B4604221946124809F059
:100C3000E3F90346002B01D000F04CFA3B460822B2
:100C400019460D4809F0D8F90346002B01D000F0F1
:100C500041FA3B460C221946074809F0CDF90346F4
:100C6000002B01D000F036FA034800F01FFB00BF54
:100C70003837BD4680BD00BF2403002480B588B04E
:100C800000AF07F1100300221A605A609A60DA6020
:100C90003B1D00221A605A609A601E4B1E4A1A6061
:100CA0001C4B4FF489725A601A4B00229A60194B00
:100CB00040F21B62DA60174B00221A61154B0022CA
:100CC0009A61144808F03AFF0346002B01D000F067
:100CD00001FA4FF480533B6107F1100319460D48A8
:100CE00009F09EFA0346002B01D000F0F3F900232F
:100CF0007B600023FB603B1D1946064809F0D4FFCA
:100D00000346002B01D000F0E5F900BF2037BD46B7
:100D100080BD00BF140100240008004080B584B0ED
:100D200000AF3B1D00221A605A609A60154B164AAC
:100D30001A60144B4FF489725A60124B00229A6069
:100D4000104B40F63F62DA600E4B00229A610D486C
:100D500008F0F4FE0346002B01D000F0BBF900239D
:100D60007B600023FB603B1D1946064809F09CFF91
:100D70000346002B01D000F0ADF900BF1037BD468F
:100D800080BD00BFD80200240010004080B500AF35
:100D9000244B254A1A60234B4FF461325A60214B91
:100DA0004FF480529A601F4B0022DA601D4B4FF4C3
:100DB00080621A611B4B0C225A611A4B00229A6105
:100DC000184B4FF40042DA61164B00221A62154BA1
:100DD00000225A62134B00229A6212480AF01EF84F
:100DE0000346002B01D000F075F900210D480CF0EE
:100DF000A1F80346002B01D000F06CF9002109484E
:100E00000CF0D6F80346002B01D000F063F905483A
:100E10000CF057F80346002B01D000F05BF900BF3F
:100E200080BD00BF700300240044004080B500AFC7
:100E3000224B234A1A60214B4FF4E1325A601F4B78
:100E400000229A601D4B0022DA601C4B00221A61BE
:100E50001A4B0C225A61194B00229A61174B00223F
:100E6000DA61164B00221A62144B00225A62134BAD
:100E700000229A62114809F0D1FF0346002B01D0ED
:100E800000F028F900210D480CF054F80346002B1F
:100E900001D000F01FF9002108480CF089F8034642
:100EA000002B01D000F016F904480CF00AF80346B4
:100EB000002B01D000F00EF900BF80BD60010024BE
:100EC0000048004080B582B000AF114BD3F8D83055
:100ED0000F4A43F00103C2F8D8300D4BD3F8D83095
:100EE00003F001037B607B68002200210B2002F0ED
:100EF000B4FD0B2002F0CBFD002200210C2002F0FB
:100F0000ACFD0C2002F0C3FD00BF0837BD4680BD1C
:100F10000044025880B58AB000AF07F114030022E4
:100F20001A605A609A60DA601A61654BD3F8E03053
:100F3000634A43F01003C2F8E030614BD3F8E0306D
:100F400003F010033B613B695D4BD3F8E0305C4A32
:100F500043F00403C2F8E030594BD3F8E03003F01B
:100F60000403FB60FB68564BD3F8E030544A43F06F
:100F70000103C2F8E030524BD3F8E03003F0010334
:100F8000BB60BB684E4BD3F8E0304D4A43F00203E0
:100F9000C2F8E0304A4BD3F8E03003F002037B6044
:100FA0007B68474BD3F8E030454A43F00803C2F86A
:100FB000E030434BD3F8E03003F008033B603B687C
:100FC000002240F608213F4805F05CFD00224FF466
:100FD00040413D4805F056FD00224FF440613B483A
:100FE00005F050FD40F608237B610123BB6100231F
:100FF000FB6103233B6207F114031946314805F0F6
:1010000099FB4FF403537B614FF48813BB610023BA
:10101000FB6107F1140319462B4805F08BFB4FF4D5
:1010200040437B610123BB610023FB6100233B62E2
:1010300007F114031946244805F07CFB4FF44D7367
:101040007B614FF48813BB610023FB6107F114033C
:1010500019461F4805F06EFB4FF440637B61012386
:10106000BB610023FB6103233B6207F114031946B4
:10107000164805F05FFB00220521082002F0EDFC78
:10108000082002F004FD002205210A2002F0E5FC00
:101090000A2002F0FCFC00220521172002F0DDFCF2
:1010A000172002F0F4FC00220521282002F0D5FCD4
:1010B000282002F0ECFC00BF2837BD4680BD00BFF1
:1010C000004402580010025800080258000002585C
:1010D0000004025880B400AF72B600BFFEE7000003
:1010E00080B483B000AF0A4BD3F8F430084A43F021
:1010F0000203C2F8F430064BD3F8F43003F00203D5
:101100007B607B6800BF0C37BD465DF8047B704791
:101110000044025880B5B6B000AF786007F1C40350
:1011200000221A605A609A60DA601A6107F11003AF
:10113000B422002118460CF04DF87B681B682A4A3F
:1011400093424CD14FF400233B6104237B610C2379
:10115000BB610223FB6102233B6202237B62C0234B
:10116000BB620023FB6200233B630023C7F8AC3063
:1011700007F11003184606F04FFC0346002B01D080
:10118000FFF7A8FF194BD3F8D830184A43F02003D3
:10119000C2F8D830154BD3F8D83003F02003FB60E9
:1011A000FB68124BD3F8E030104A43F00103C2F859
:1011B000E0300E4BD3F8E03003F00103BB60BB68B6
:1011C0004023C7F8C4300323C7F8C8300023C7F84A
:1011D000CC3007F1C4031946054805F0ABFA00BF4F
:1011E000D837BD4680BD00BF0020024000440258F1
:1011F0000000025880B586B000AF78607B681B683D
:10120000B3F1804F0FD1264BD3F8E830244A43F096
:101210000103C2F8E830224BD3F8E83003F00103B1
:101220007B617B6938E07B681B681E4A934217D15B
:101230001B4BD3F8E8301A4A43F00403C2F8E830F5
:10124000174BD3F8E83003F004033B613B690022FD
:1012500003211E2002F001FC1E2002F018FC1BE0FE
:101260007B681B68104A934216D10D4BD3F8E830C7
:101270000B4A43F01003C2F8E830094BD3F8E830CA
:1012800003F01003FB60FB6800220321362002F00C
:10129000E4FB362002F0FBFB00BF1837BD4680BDE3
:1012A00000440258000800400010004080B58AB099
:1012B00000AF786007F1140300221A605A609A6048
:1012C000DA601A617B681B68B3F1804F3FD1224B13
:1012D000D3F8E030204A43F00103C2F8E0301E4B5F
:1012E000D3F8E03003F001033B613B691A4BD3F8BC
:1012F000E030194A43F00203C2F8E030164BD3F84D
:10130000E03003F00203FB60FB6848F208037B61F6
:101310000223BB610023FB6100233B6201237B624C
:1013200007F1140319460D4805F004FA4FF48163E0
:101330007B610223BB610023FB6100233B6201232D
:101340007B6207F114031946054805F0F3F900BF65
:101350002837BD4680BD00BF004402580000025837
:101360000004025880B5BAB000AF786007F1D4032A
:1013700000221A605A609A60DA601A6107F120034D
:10138000B422002118460BF025FF7B681B688E4AAB
:10139000934240F0A78002233B620023C7F89030BD
:1013A00007F12003184606F037FB0346002B01D057
:1013B000FFF790FE854BD3F8E830844A43F40033BE
:1013C000C2F8E830814BD3F8E83003F40033FB6116
:1013D000FB697E4BD3F8E0307C4A43F00803C2F847
:1013E000E0307A4BD3F8E03003F00803BB61BB690F
:1013F0006023C7F8D4300223C7F8D8300023C7F8D9
:10140000DC300323C7F8E0300723C7F8E43007F1E6
:10141000D40319466E4805F08DF96E4B6E4A1A607A
:101420006C4B2B225A606B4B00229A60694B002256
:10143000DA60684B4FF480621A61664B00225A6191
:10144000644B00229A61634B0022DA61614B4FF4D6
:1014500040321A625F4B00225A625E4802F032FB51
:101460000346002B01D0FFF735FE7B68594ADA6747
:10147000584A7B689363594B594A1A60574B2C2240
:101480005A60564B40229A60544B0022DA60534B0C
:101490004FF480621A61514B00225A614F4B002277
:1014A0009A614E4B0022DA614C4B4FF440321A6283
:1014B0004A4B00225A62494802F004FB0346002BC3
:1014C00001D0FFF707FE7B68444A9A67434A7B686E
:1014D000936300220021262002F0BFFA262002F0AA
:1014E000D6FA6CE07B681B683E4A934267D10223C0
:1014F0003B620023C7F8903007F12003184606F03E
:101500008BFA0346002B01D0FFF7E4FD2F4BD3F8F5
:10151000E8302E4A43F48023C2F8E8302B4BD3F84E
:10152000E83003F480237B617B69284BD3F8E030FB
:10153000264A43F00203C2F8E030244BD3F8E030EF
:1015400003F002033B613B69204BD3F8E0301F4AB4
:1015500043F00403C2F8E0301C4BD3F8E03003F052
:101560000403FB60FB684FF40063C7F8D430022328
:10157000C7F8D8300023C7F8DC300023C7F8E030C4
:101580000723C7F8E43007F1D4031946164805F0DD
:10159000D1F84FF48063C7F8D4300223C7F8D830AD
:1015A0000023C7F8DC300023C7F8E0300723C7F872
:1015B000E43007F1D40319460C4805F0BBF800BF2E
:1015C000E837BD4680BD00BF0044004000440258DB
:1015D000000C02589C00002410000240600200240D
:1015E0002800024000480040000402580008025849
:1015F00080B400AFFEE780B400AFFEE780B400AF78
:10160000FEE780B400AFFEE780B400AFFEE780B431
:1016100000AF00BFBD465DF8047B704780B400AFEB
:1016200000BFBD465DF8047B704780B400AF00BFCB
:10163000BD465DF8047B704780B500AF00F0B6F999
:1016400000BF80BD80B500AF042005F04EFA00BF9A
:1016500080BD80B500AF102005F047FA00BF80BD07
:1016600080B500AF024803F053FD00BF80BD00BF4E
:101670009C00002480B500AF024803F049FD00BF84
:1016800080BD00BF6002002480B500AF202005F0BF
:101690002CFA402005F029FA802005F026FA4FF4B4
:1016A000807005F022FA4FF4007005F01EFA00BFBA
:1016B00080BD000080B500AF4FF40071034805F015
:1016C000FAF9034808F079FB00BF80BD001002580A
:1016D0001401002480B500AF024809F017FD00BFD7
:1016E00080BD00BF7003002480B500AF4FF40050F0
:1016F00005F0FBF900BF80BD80B500AF4FF400617D
:10170000034805F0D8F9034808F057FB00BF80BD37
:1017100000100258D802002480B586B000AF78606F
:10172000144A154BD31A7B617B693B61134B1B68D1
:10173000002B02D1114B124A1A60104B1A687B68B9
:1017400013443A699A4207D20BF01AFD03460C2261
:101750001A604FF0FF3309E0084B1B68FB60074B32
:101760001A687B681344054A1360FB6818461837EB
:10177000BD4680BD00000524000400009000002448
:101780001804002480B400AF324BD3F88830314ABB
:1017900043F47003C2F888302F4B1B6803F00F032B
:1017A000062B07D82C4B1B6823F00F032A4A43F063
:1017B00007031360294B1B68284A43F00103136099
:1017C000264B00221A61254B1A682449244B1340EA
:1017D0000B60214B1B6803F00803002B07D01E4B46
:1017E0001B6823F00F031C4A43F0070313601B4BD5
:1017F00000229A61194B0022DA61184B00221A620A
:10180000164B184A9A62154B174ADA62134B174A5D
:101810001A63124B00225A63104B144A9A630F4BFF
:101820000022DA630D4B114A1A640C4B00225A64F1
:101830000A4B1B68094A23F480231360074B0022DC
:101840001A660B4B43F2D2021A6000BFBD465DF828
:10185000047B704700ED00E0002000520044025875
:101860007FEDF6EA000202020000FF0180020101A2
:1018700000400052DFF834D0FFF784FF0C480D49D8
:101880000D4A002302E0D458C4500433C4188C42DB
:10189000F9D30A4A0A4C002301E013600432A24241
:1018A000FBD30BF073FCFEF729FF70470000052403
:1018B00000000024740000243CDB000874000024B5
:1018C00014040024FEE7000080B582B000AF0320BE
:1018D00002F0B8F805F0CAFE0246154B9B691B0AD8
:1018E00003F00F031349CB5C03F01F0322FA03F349
:1018F0007B600F4B9B6903F00F030E4AD35C03F030
:101900001F037A6822FA03F30B4A13600B4A7B68C1
:1019100013600F2000F014F80346002B01D00123C0
:1019200002E0FFF7DDFB002318460837BD4680BD07
:1019300000440258B8DA0008040000240000002423
:1019400080B582B000AF7860154B1B78002B01D1B9
:10195000012321E0134B1A68114B1B7819464FF4F1
:101960007A73B3FBF1F3B2FBF3F3184602F09DF880
:101970000346002B01D001230EE07B680F2B0AD811
:10198000002279684FF0FF3002F067F8064A7B6862
:101990001360002300E0012318460837BD4680BDD0
:1019A0000C000024000000240800002480B400AFD4
:1019B000064B1B781A46064B1B681344044A1360F7
:1019C00000BFBD465DF8047B704700BF0C000024DB
:1019D0000004002480B400AF034B1B681846BD46CA
:1019E0005DF8047B704700BF0004002480B584B01C
:1019F00000AF7860FFF7EEFFB8607B68FB60FB68C4
:101A0000B3F1FF3F05D00A4B1B781A46FB6813441D
:101A1000FB6000BFFFF7DEFF0246BB68D31AFA681F
:101A20009A42F7D800BF00BF1037BD4680BD00BF47
:101A30000C00002480B483B000AF786039607B680C
:101A40009B6823F47C123B681A437B689A6000BF52
:101A50000C37BD465DF8047B704780B483B000AF9F
:101A6000786039607B689B6823F0E0723B681A43BA
:101A70007B689A6000BF0C37BD465DF8047B7047F9
:101A800080B483B000AF78607B689B6803F0E0733C
:101A900018460C37BD465DF8047B704780B487B0AC
:101AA00000AFF860B9607A603B60FB6860331A464B
:101AB000BB689B0013447B61FB68104A93420BD1C7
:101AC0007B691B687B6803F0F8423B68134343F073
:101AD00000427B691A600BE07B691B6803F00042DF
:101AE0007B6803F0F8413B680B431A437B691A603B
:101AF00000BF1C37BD465DF8047B7047006002588C
:101B000080B485B000AF786039607B6860331A4676
:101B10003B689B001344FB60FB681B6803F0F843C1
:101B200018461437BD465DF8047B704780B485B015
:101B300000AFF860B9607A60FB681B6923F4F0427B
:101B4000BB6803F01F03796801FA03F31A43FB68CB
:101B50001A6100BF1437BD465DF8047B7047000072
:101B600080B487B000AFF860B9607A60FB680C4A57
:101B700093420ED0FB6860331A46BB689B00134447
:101B80007B617B691B6823F000427B681A437B6999
:101B90001A6000BF1C37BD465DF8047B704700BF6C
:101BA0000060025880B487B000AFF860B9607A6016
:101BB000FB680C4A93420ED1FB6860331A46BB683F
:101BC0009B0013447B617B691B6823F000727B6878
:101BD0001A437B691A6000BF1C37BD465DF8047B61
:101BE000704700BF0060025880B487B000AFF86053
:101BF000B9607A60FB680C4A93420ED1FB6860338F
:101C00001A46BB689B0013447B617B691B6823F009
:101C100080727B681A437B691A6000BF1C37BD461F
:101C20005DF8047B704700BF0060025880B487B045
:101C300000AFF860B9607A60FB6860331A46BB6831
:101C40009B0013447B61FB680C4A934208D17B697B
:101C50001B6823F000427B681A437B691A6007E027
:101C60007B691B6823F000427B681A437B691A601A
:101C700000BF1C37BD465DF8047B7047006002580A
:101C800080B483B000AF78607B68DB6803F44063A6
:101C9000002B01D1012300E0002318460C37BD467C
:101CA0005DF8047B704780B487B000AFF860B9601E
:101CB0007A60FB6830331A46BB681B0A9B0003F04E
:101CC0000C0313447B617B691A68BB6803F01F0334
:101CD0001F2101FA03F3DB431A407B689B0E03F0DC
:101CE0001F01BB6803F01F0301FA03F31A437B696A
:101CF0001A6000BF1C37BD465DF8047B704780B496
:101D000087B000AFF860B9607A60FB6814331A4698
:101D1000BB685B0E9B0003F0040313447B617B698B
:101D20001A68BB681B0D03F01F03072101FA03F3B8
:101D3000DB431A40BB681B0D03F01F03796801FAEF
:101D400003F31A437B691A6000BF1C37BD465DF878
:101D5000047B704780B485B000AFF860B9607A60EA
:101D6000FB681A4A934215D1FB68D3F8B020BB68D0
:101D7000C3F31303DB431A407B6803F018031449D1
:101D8000D940BB680B40C3F313031A43FB68C3F885
:101D9000B02014E0FB68D3F8C020BB68C3F3130382
:101DA000DB431A407B6803F018030949D940BB683C
:101DB0000B40C3F313031A43FB68C3F8C02000BFF2
:101DC0001437BD465DF8047B704700BF00600258C1
:101DD000FFFF0F0080B483B000AF78607B689B6822
:101DE00003F01F0318460C37BD465DF8047B7047AF
:101DF00080B483B000AF78607B689B6803F4404395
:101E000018460C37BD465DF8047B704780B483B03C
:101E100000AF78607B689A68044B13407A689360DF
:101E200000BF0C37BD465DF8047B7047C0FFFF5F05
:101E300080B483B000AF78607B689B6803F0005388
:101E4000B3F1005F01D1012300E0002318460C37F5
:101E5000BD465DF8047B704780B483B000AF786006
:101E60007B689A68054B134043F080527B689A6008
:101E700000BF0C37BD465DF8047B7047C0FFFF6FA5
:101E800080B483B000AF78607B689B6803F08053B8
:101E9000B3F1805F01D1012300E0002318460C3725
:101EA000BD465DF8047B704780B483B000AF7860B6
:101EB0007B689A68054B134043F001027B689A6087
:101EC00000BF0C37BD465DF8047B7047C0FFFF7F45
:101ED00080B483B000AF78607B689A68054B13408C
:101EE00043F002027B689A6000BF0C37BD465DF884
:101EF000047B7047C0FFFF7F80B483B000AF786081
:101F00007B689B6803F00103012B01D1012300E0F2
:101F1000002318460C37BD465DF8047B704780B43B
:101F200083B000AF78607B689B6803F00203022BEC
:101F300001D1012300E0002318460C37BD465DF8AF
:101F4000047B704780B483B000AF78607B689A6888
:101F5000054B134043F004027B689A6000BF0C37C6
:101F6000BD465DF8047B7047C0FFFF7F80B483B03F
:101F700000AF78607B689B6803F00403042B01D1F9
:101F8000012300E0002318460C37BD465DF8047BB2
:101F9000704780B483B000AF78607B689B6803F0C3
:101FA0000803082B01D1012300E0002318460C3759
:101FB000BD465DF8047B704790B589B000AF78608E
:101FC0000023FB770023BB607B68002B01D101233A
:101FD000EEE17B681B69002B7B681B6E002B09D12F
:101FE0007868FFF797F87B6800225A667B680022C2
:101FF00083F85C207B681B681846FFF719FF0346CF
:10200000002B04D07B681B681846FFF7FFFE7B6837
:102010001B681846FFF734FF0346002B14D17B687A
:102020001B681846FFF718FF8E4B1B689B098E4AEA
:10203000A2FB03239B090133BB6002E0BB68013BA9
:10204000BB60BB68002BF9D17B681B681846FFF7A3
:1020500017FF0346002B0DD17B681B6E43F0100267
:102060007B681A667B685B6E43F001027B685A6688
:102070000123FB777B681B681846FFF777FF7861C1
:102080007B681B6E03F01003002B40F088817B6996
:10209000002B40F084817B681B6E23F4817343F036
:1020A00002027B681A667B681B681846FFF724FFEC
:1020B0000346002B36D17B681B686C4A934204D0E0
:1020C0007B681B686A4A93420ED16848FFF714FF89
:1020D00004466748FFF710FF03462343002B0CBF5D
:1020E00001230023DBB208E06248FFF705FF034647
:1020F000002B0CBF01230023DBB2002B12D07B6826
:102100001B685A4A934204D07B681B68584A934222
:1021100001D1594A00E0594A7B685B68194610466C
:10212000FFF788FC7B681B68524A934229D17B6881
:102130005B7E5A037B68DB6B1A437B68DB681A4360
:102140007B689B68082B13D07B689B680C2B0DD099
:102150007B689B681C2B07D07B689B68182B01D180
:10216000182306E0002304E0102302E0082300E027
:1021700000231A437B6893F820301B041343BB6190
:102180000EE07B685B7E5A037B68DB6B1A437B68DF
:102190009B681A437B6893F820301B041343BB6190
:1021A0007B6893F82030012B06D17B685B6A013B8A
:1021B0005B04BA691343BB617B689B6A002B09D03F
:1021C0007B689B6A03F478727B68DB6A1343BA69A5
:1021D0001343BB617B681B68264A934215D17B6819
:1021E0001B68DA68264B13407A681268B9690B439A
:1021F000D3607B681B681B6923F040617B685A6B66
:102200007B681B680A431A6109E07B681B68DA680F
:102210001C4B13407A681268B9690B43D3607B6822
:102220001B681846FFF7A2FE38617B681B681846DA
:10223000FFF7AFFEF8603B69002B40F08E80FB6833
:10224000002B40F08A807B681B680A4A93421BD1AE
:102250007B681B7E9A037B6893F838305B001343DE
:10226000BB6118E000000024632D3E050020024001
:10227000002102400060025800230240006302581F
:102280000740F0FF03C0F0FF7B681B7E9A037B686A
:102290001B6B1343BB617B681B68DA68464B1340BA
:1022A0007A681268B9690B43D3607B6893F844304D
:1022B000012B37D17B689B6A002B7B681B683F4AE8
:1022C000934216D17B681B681A693D4B13407A68AC
:1022D000916C7A68D26C11437A68126D11437A68F6
:1022E000526D0A431A437B681B6842F001021A616F
:1022F00020E07B681B681A69324B13407A68926C45
:10230000013A11047A68D26C11437A68126D114354
:102310007A68526D0A431A437B681B6842F00102D7
:102320001A6107E07B681B681A697B681B6822F0EA
:1023300001021A617B681B681B6923F070417B688E
:102340001A6C7B681B680A431A617B681B681B4A0E
:10235000934202D0786801F019F87B681B69012B61
:102360000CD17B681B681B6B23F00F017B68DB695A
:102370005A1E7B681B680A431A6307E07B681B6868
:102380001A6B7B681B6822F00F021A637B681B6E56
:1023900023F0030343F001027B681A6607E07B68C1
:1023A0001B6E43F010027B681A660123FB77FB7FEC
:1023B00018462437BD4690BDFCBFFFFF00600258A1
:1023C0001FF800FC1EF800FC80B586B000AF7860F6
:1023D0007B681B685C4A934204D07B681B685B4A3D
:1023E000934201D15A4B00E05A4B1846FFF7F2FCDA
:1023F00038617B681B681846FFF7B8FD0346002B61
:1024000040F09A807B6893F85C30012B01D1022365
:1024100095E07B68012283F85C20786800F0CCFEB0
:102420000346FB75FB7D002B40F081807B681A6EB4
:10243000494B134043F480727B681A667B681B68C3
:10244000424A934202D07B681B6800E03E4B7A68A8
:102450001268934202D03B69002B05D17B681B6E4A
:1024600023F480127B681A667B681B6E03F480532A
:10247000B3F5805F06D17B685B6E23F006027B6854
:102480005A6602E07B6800225A667B681B681C2241
:102490001A607B68002283F85C207B681B682B4AEB
:1024A000934202D07B681B6800E0274B7A68126871
:1024B000934208D03B69002B05D03B69052B02D025
:1024C0003B69092B14D17B681B68DB6803F0007340
:1024D000002B07D07B681B6E23F4405343F48052DB
:1024E0007B681A667B681B681846FFF72BFD25E0A2
:1024F0007B681B6E43F480127B681A667B681B68DE
:10250000124A934202D07B681B6800E00E4BFB60CE
:10251000FB68DB6803F00073002B0FD07B681B6E39
:1025200023F4405343F480527B681A6606E07B68CC
:10253000002283F85C2001E00223FB75FB7D184636
:102540001837BD4680BD00BF002002400021024078
:102550000023024000630258FEF0FFFF80B588B000
:1025600000AF786039607B681B68724A934204D080
:102570007B681B68704A934201D1704B00E0704B3E
:102580001846FFF727FC78617B685B69082B02D14E
:102590000823FB6137E07B69002B05D07B69052BA5
:1025A00002D07B69092B11D17B681B68DB6803F0C3
:1025B0000103002B07D07B681B6E43F020027B6871
:1025C0001A660123B1E00423FB611CE07B681B68F1
:1025D000584A934204D07B681B68574A934201D102
:1025E000564B00E0564B1846FFF702FC0346002B03
:1025F00007D07B681B6E43F020027B681A660123BC
:1026000093E00423FB61FFF7E5F9386121E03B68C3
:10261000B3F1FF3F1DD0FFF7DDF902463B69D31A46
:102620003A689A4202D33B68002B12D17B681B6840
:102630001A68FB691340002B0BD17B681B6E43F0BB
:1026400004027B681A667B68002283F85C200323FF
:102650006BE07B681B681A68FB691340002BD6D0BF
:102660007B681B6E43F400727B681A667B681B688C
:102670001846FFF705FB0346002B1CD07B685B7EEA
:10268000002B18D17B681B681B6803F00803082B1C
:1026900011D17B681B6E23F480727B681A667B689D
:1026A0001B6E03F48053002B05D17B681B6E43F037
:1026B00001027B681A667B681B681F4A934202D03E
:1026C0007B681B6800E01B4B7A681268934208D055
:1026D0007B69002B05D07B69052B02D07B69092B18
:1026E00004D17B681B68DB68BB610CE07B681B68FE
:1026F000114A934202D07B681B6800E00D4BFB60DF
:10270000FB68DB68BB61FB69082B04D17B681B6835
:1027100008221A6008E0BB6903F48043002B03D150
:102720007B681B680C221A60002318462037BD46C0
:1027300080BD00BF00200240002102400023024073
:102740000063025880B483B000AF78607B681B6878
:102750001B6C18460C37BD465DF8047B70470000C3
:1027600090B5B9B000AF78603960002387F8DF30EA
:102770000023BB607B6893F84430012B3B68DB6827
:10278000B34A93427B6893F85C30012B02D1022359
:1027900000F0FABC7B68012283F85C207B681B6830
:1027A0001846FFF7E3FB0346002B40F0DE847B680E
:1027B0001B68A84A934233D03B681B68C3F31303DA
:1027C000002B08D13B681B689B0E03F01F030122FE
:1027D00002FA03F31DE03B681B68C7F8C430D7F862
:1027E000C43093FAA3F3C7F8C030D7F8C030C7F8A5
:1027F000C830D7F8C830002B01D1202304E0D7F827
:10280000C830B3FA83F3DBB203F01F03012202FAEC
:1028100003F37A681268D1697A6812680B43D3614E
:102820007B6818683B6859683B681B681A46FFF765
:102830003AFA7B681B681846FFF798FBC7F8D40084
:102840007B681B681846FFF7A4FBC7F8D000D7F8D1
:10285000D430002B40F07082D7F8D030002B40F0FD
:102860006B827B6818683B6819683B689B681A46EE
:10287000FFF745FA7B681B68764A93420DD13B68A7
:102880005A697B681B68DB68DB0803F003035B00A5
:1028900002FA03F3C7F8D83032E06F4B1B6803F03D
:1028A0007043B3F1805F0BD13B685A697B681B684A
:1028B000DB689B0803F007035B0002FA03F31DE0EB
:1028C0007B681B68DB6803F01003002B0BD13B68AF
:1028D0005A697B681B68DB689B0803F007035B0091
:1028E00002FA03F30AE03B685A697B681B68DB68FD
:1028F0009B0803F004035B0002FA03F3C7F8D83027
:102900003B681B69042B48D07B6818683B681969D1
:102910003B681A68D7F8D830FFF7C0F87B681B68A7
:102920004C4A934219D17B6818683B6819693B6827
:10293000DB691A46FFF758F97B6818683B68196924
:102940003B6893F82030012B02D14FF0007300E078
:1029500000231A46FFF726F9EEE17B6818683B680A
:1029600019693B6893F82130012B02D14FF00043E5
:1029700000E000231A46FFF7F3F87B6818683B680D
:1029800019693B681B7E012B02D14FF4006300E004
:1029900000231A46FFF7CAF8CEE17B681B682D4A70
:1029A000934240F081817B681B6800211846FFF745
:1029B000A7F80346C3F31303002B0AD17B681B68F7
:1029C00000211846FFF79CF803469B0E03F01F02F8
:1029D0001EE07B681B6800211846FFF791F803464C
:1029E000C7F8B830D7F8B83093FAA3F3C7F8B430C3
:1029F000D7F8B430C7F8BC30D7F8BC30002B01D1C1
:102A0000202304E0D7F8BC30B3FA83F3DBB21A46D4
:102A10003B681B68C3F31303002B05D13B681B689D
:102A20009B0E03F01F031EE03B681B68C7F8AC3029
:102A3000D7F8AC3093FAA3F3C7F8A830D7F8A8308A
:102A4000C7F8B030D7F8B030002B07D120230AE008
:102A50000000FF47006002580010005CD7F8B0305B
:102A6000B3FA83F3DBB29A4206D17B681B6800227B
:102A700000211846FFF7DAF87B681B680121184629
:102A8000FFF73EF80346C3F31303002B0AD17B681C
:102A90001B6801211846FFF733F803469B0E03F02D
:102AA0001F021EE07B681B6801211846FFF728F80B
:102AB0000346C7F8A030D7F8A03093FAA3F3C7F8BD
:102AC0009C30D7F89C30C7F8A430D7F8A430002B3E
:102AD00001D1202304E0D7F8A430B3FA83F3DBB2AA
:102AE0001A463B681B68C3F31303002B05D13B68F0
:102AF0001B689B0E03F01F0318E03B681B68C7F8B8
:102B00009430D7F8943093FAA3F3C7F89030D7F8FD
:102B10009030C7F89830D7F89830002B01D1202397
:102B200004E0D7F89830B3FA83F3DBB29A4206D1C7
:102B30007B681B68002201211846FFF777F87B6845
:102B40001B6802211846FEF7DBFF0346C3F313039D
:102B5000002B0AD17B681B6802211846FEF7D0FFC4
:102B600003469B0E03F01F021EE07B681B680221D8
:102B70001846FEF7C5FF0346C7F88830D7F88830F7
:102B800093FAA3F3C7F88430D7F88430C7F88C30B1
:102B9000D7F88C30002B01D1202304E0D7F88C30FB
:102BA000B3FA83F3DBB21A463B681B68C3F3130323
:102BB000002B05D13B681B689B0E03F01F0314E03C
:102BC0003B681B68FB67FB6F93FAA3F3BB67BB6FA4
:102BD000C7F88030D7F88030002B01D1202304E0E3
:102BE000D7F88030B3FA83F3DBB29A4206D17B6820
:102BF0001B68002202211846FFF718F87B681B6843
:102C000003211846FEF77CFF0346C3F31303002B92
:102C10000AD17B681B6803211846FEF771FF034643
:102C20009B0E03F01F0217E07B681B680321184608
:102C3000FEF766FF03463B673B6F93FAA3F3FB6621
:102C4000FB6E7B677B6F002B01D1202303E07B6F42
:102C5000B3FA83F3DBB21A463B681B68C3F3130372
:102C6000002B05D13B681B689B0E03F01F0311E08E
:102C70003B681B687B667B6E93FAA3F33B663B6EF7
:102C8000BB66BB6E002B01D1202303E0BB6EB3FA01
:102C900083F3DBB29A424FD17B681B680022032189
:102CA0001846FEF7C3FF47E07B681B681B6E03F006
:102CB000F8423B681B689B069A4207D17B681B68F9
:102CC0001A6E7B681B6822F000421A667B681B68DC
:102CD0005B6E03F0F8423B681B689B069A4207D183
:102CE0007B681B685A6E7B681B6822F000425A663C
:102CF0007B681B689B6E03F0F8423B681B689B0671
:102D00009A4207D17B681B689A6E7B681B6822F029
:102D100000429A667B681B68DB6E03F0F8423B68F2
:102D20001B689B069A4207D17B681B68DA6E7B683A
:102D30001B6822F00042DA667B681B681846FFF7C2
:102D4000DBF80346002B40F019827B6818683B686B
:102D500019683B68DB681A46FEF7FCFF3B68DB68D6
:102D6000A14A934240F02E817B6818683B681B683B
:102D7000C3F31303002B0BD13B681B689B0E01337D
:102D800003F01F03092B94BF01230023DBB219E0DA
:102D90003B681B68BB65BB6D93FAA3F37B657B6DDA
:102DA000FB65FB6D002B01D1202303E0FB6DB3FA23
:102DB00083F3DBB2013303F01F03092B94BF01231C
:102DC0000023DBB2002B79D03B681B68C3F31303ED
:102DD000002B07D13B681B689B0E01339B0603F059
:102DE000F84215E03B681B68FB64FB6C93FAA3F3A5
:102DF000BB64BB6C3B653B6D002B01D1202303E022
:102E00003B6DB3FA83F3DBB201339B0603F0F84268
:102E10003B681B68C3F31303002B09D13B681B6895
:102E20009B0E013303F01F03012101FA03F317E0A6
:102E30003B681B683B643B6C93FAA3F3FB63FB6B3F
:102E40007B647B6C002B01D1202303E07B6CB3FA05
:102E500083F3DBB2013303F01F03012101FA03F313
:102E600042EA03013B681B68C3F31303002B0AD13A
:102E70003B681B689B0E013303F01F0213465B0087
:102E800013441B0518E03B681B687B637B6B93FA5C
:102E9000A3F33B633B6BBB63BB6B002B01D12023D4
:102EA00003E0BB6BB3FA83F3DBB2013303F01F0221
:102EB00013465B0013441B050B437EE03B681B6815
:102EC000C3F31303002B07D13B681B689B0E013330
:102ED0009B0603F0F84215E03B681B68BB62BB6AC7
:102EE00093FAA3F37B627B6AFB62FB6A002B01D13E
:102EF000202303E0FB6AB3FA83F3DBB201339B06C2
:102F000003F0F8423B681B68C3F31303002B09D19D
:102F10003B681B689B0E013303F01F03012101FA7C
:102F200003F317E03B681B68FB61FB6993FAA3F3AB
:102F3000BB61BB693B623B6A002B01D1202303E0EC
:102F40003B6AB3FA83F3DBB2013303F01F030121C1
:102F500001FA03F342EA03013B681B68C3F313035E
:102F6000002B0DD13B681B689B0E013303F01F0241
:102F700013465B0013441E3B1B0543F000731BE02C
:102F80003B681B683B613B6993FAA3F3FB60FB68FA
:102F90007B617B69002B01D1202303E07B69B3FABD
:102FA00083F3DBB2013303F01F0213465B001344CB
:102FB0001E3B1B0543F000730B433A6892681946A9
:102FC000FEF79DFE3B681B68002B80F2D7807B6874
:102FD0001B68064A934204D07B681B68044A9342EC
:102FE0000AD1044B09E000BF0000FF470020024067
:102FF0000021024000230240654B1846FEF740FDC9
:10300000C7F8CC007B681B68624A934204D07B6897
:103010001B68614A93420ED15E48FEF76DFF04467D
:103020005D48FEF769FF03462343002B0CBF0123D5
:103030000023DBB208E05948FEF75EFF0346002B91
:103040000CBF01230023DBB2002B00F084803B681F
:103050001B68534A934232D1D7F8CC3003F40003B3
:10306000002B2CD17B681B684C4A934240F0868031
:103070007B681B68474A934204D07B681B68464ABA
:10308000934201D1474A00E0414AD7F8CC3043F49B
:10309000000319461046FEF7E0FC434B1B689B09F2
:1030A000424AA2FB03239B0901335B00BB6002E0A1
:1030B000BB68013BBB60BB68002BF9D15EE03B689D
:1030C0001B683B4A934220D1D7F8CC3003F0807381
:1030D000002B1AD17B681B68304A93424ED17B6823
:1030E0001B682C4A934204D07B681B682A4A93428F
:1030F00001D12C4A00E0264AD7F8CC3043F0807347
:1031000019461046FEF7A9FC38E03B681B68294ABF
:10311000934233D1D7F8CC3003F48003002B2DD168
:103120007B681B681D4A934228D17B681B68194A3B
:10313000934204D07B681B68174A934201D1194A15
:1031400000E0134AD7F8CC3043F480031946104608
:10315000FEF783FC12E07B681B6E43F020027B6865
:103160001A66012387F8DF3008E07B681B6E43F0A6
:1031700020027B681A66012387F8DF307B68002213
:1031800083F85C2097F8DF301846E437BD4690BDE1
:1031900000630258002002400021024000600258F3
:1031A000000052C70023024000000024632D3E05AA
:1031B000000021C3000084CB80B584B000AF7860EC
:1031C0007B681B681846FEF797FE0346002B6ED1FE
:1031D0007B681B689A68384B1340002B0DD07B68C6
:1031E0001B6E43F010027B681A667B685B6E43F0CF
:1031F00001027B685A6601235AE07B681B68184607
:10320000FEF752FEFEF7E6FBF8607B681B682B4A70
:10321000934204D07B681B68294A934201D1294B11
:1032200000E0294B1846FEF7D5FDB8607B681B68A7
:10323000234A934202D07B681B6800E01F4B7A68E8
:10324000126893422CD0BB68002B30D128E07B68F9
:103250001B681846FEF750FE0346002B04D17B681E
:103260001B681846FEF720FEFEF7B4FB0246FB681B
:10327000D31A022B14D97B681B681B6803F0010367
:10328000012B0DD07B681B6E43F010027B681A6621
:103290007B685B6E43F001027B685A66012307E09E
:1032A0007B681B681B6803F00103012BCFD100234F
:1032B00018461037BD4680BD3F0000800020024008
:1032C00000210240002302400063025880B584B010
:1032D00000AF78607B681B681846FEF720FEF86038
:1032E0007B681B681846FEF707FE0346002B47D095
:1032F000FB68002B44D17B681B689B6803F00D03BF
:10330000012B0CD17B681B681846FEF7E1FD7B683A
:103310001B6803221A60FEF75DFBB86029E07B683A
:103320001B6E43F010027B681A667B685B6E43F08D
:1033300001027B685A66012323E0FEF74BFB02463D
:10334000BB68D31A022B14D97B681B689B6803F0F7
:103350000103002B0DD07B681B6E43F010027B68CD
:103360001A667B685B6E43F001027B685A66012334
:1033700007E07B681B689B6803F00103002BDCD12E
:10338000002318461037BD4680BD000080B584B0CC
:1033900000AF78607B681B686B4A934204D07B68FF
:1033A0001B686A4A934209D1694B9B6803F4403316
:1033B000002B14BF01230023DBB208E0654B9B68A0
:1033C00003F44033002B14BF01230023DBB2002B96
:1033D0001CD004F0C5FAF8607B685B68B3F5403F29
:1033E00010D0B3F5403F71D8B3F5803F02D0B3F5AC
:1033F000003F6BD17B685B681B0CFA68B2FBF3F390
:10340000FB6066E0FB689B08FB6062E04FF4002015
:1034100005F0FCF9F8607B685B68B3F5301F51D0AC
:10342000B3F5301F54D8B3F5201F47D0B3F5201F94
:103430004ED8B3F5101F3DD0B3F5101F48D8B3F5E3
:10344000001F33D0B3F5001F42D8B3F5E01F29D0D9
:10345000B3F5E01F3CD8B3F5C01F1AD0B3F5C01FB9
:1034600036D8B3F5A01F14D0B3F5A01F30D8B3F5EC
:10347000801F0ED0B3F5801F2AD8B3F5402F08D097
:10348000B3F5402F24D8B3F5802F02D0B3F5002F29
:103490001ED17B685B689B0C5B00FA68B2FBF3F3A0
:1034A000FB6016E0FB681B09FB6012E0FB685B0930
:1034B000FB600EE0FB689B09FB600AE0FB68DB0930
:1034C000FB6006E0FB681B0AFB6002E000BF00E057
:1034D00000BFFB685B08FB60FB681F4A934208D88B
:1034E0007B681B689A687B681B6822F440729A604C
:1034F00025E0FB68194A93420AD87B681B689B68E1
:1035000023F440727B681B6842F480729A6016E074
:10351000FB68134A93420AD87B681B689B6823F4B4
:1035200040727B681B6842F400729A6007E07B6817
:103530001B689A687B681B6842F440729A6000BFFF
:103540001037BD4680BD00BF002002400021024070
:103550000023024000630258105E5F0020BCBE00E2
:1035600040787D0180B483B000AF78607B689B6851
:1035700003F00103012B01D1012300E000231846D1
:103580000C37BD465DF8047B7047000080B485B001
:1035900000AFF860B9607A60FB689A68094B134025
:1035A000BA6802F480317A6802F080420A43134319
:1035B00043F00042FB689A6000BF1437BD465DF8D7
:1035C000047B7047C0FFFE3F80B483B000AF7860DB
:1035D0007B689B6803F00043B3F1004F01D10123E6
:1035E00000E0002318460C37BD465DF8047B7047A9
:1035F00080B483B000AF78607B689B6803F00403FD
:10360000042B01D1012300E0002318460C37BD46EE
:103610005DF8047B7047000080B586B000AFF860AD
:10362000B9607A6000233B61FB6893F85C30012B42
:1036300001D102234CE0FB68012283F85C20F8688A
:10364000FFF744FE0346FB75FB7D002B35D1FB687D
:103650001A6E214B134043F00202FB681A66FB68A6
:103660001B687A68B9681846FFF790FF14E03B6959
:1036700001333B613B69194A93420DD3FB681B6ED2
:1036800023F0120343F01002FB681A66FB68002265
:1036900083F85C2001231BE0FB681B681846FFF7DA
:1036A00093FF0346002BE2D1FB681B6E23F003035C
:1036B00043F00102FB681A6605E0FB681B6E43F0ED
:1036C0001002FB681A66FB68002283F85C20FB7D11
:1036D00018461837BD4680BDFDEEFFFF00F8C32534
:1036E00090B5A3B000AF78603960002387F88730C9
:1036F0007B6893F85C30012B01D10223C1E07B6829
:10370000012283F85C200023FB6600233B677B6873
:103710001B685E4A934202D15D4BFB6001E00023CF
:10372000FB60FB68002B0BD17B681B6E43F0200213
:103730007B681A667B68002283F85C200123A0E086
:10374000FB681846FFF754FFC7F880007B681B68CA
:103750001846FFF74DFF0346002B40F08180D7F855
:103760008030002B7CD17B681B68484A934204D090
:103770007B681B68464A934201D1464B00E0464BAA
:10378000FB673B681B68002B39D0FB6F9B6823F4F9
:1037900040423B685B681A43FB6F9A607B681B681A
:1037A0003A4A934204D07B681B68394A93420ED14F
:1037B0003648FFF7D7FE04463548FFF7D3FE0346E9
:1037C0002343002B0CBF01230023DBB208E0334866
:1037D000FFF7C8FE0346002B0CBF01230023DBB21A
:1037E000002B47D0FB6F9A682D4B13403A68116845
:1037F0003A6892680A431A43FB6F9A603AE0FB6F9B
:103800009B6823F44042FB6F9A607B681B681F4AE9
:10381000934204D07B681B681D4A93420ED11B481B
:10382000FFF7A0FE04461A48FFF79CFE0346234319
:10383000002B0CBF01230023DBB208E01748FFF781
:1038400091FE0346002B0CBF01230023DBB2002BAB
:1038500010D0FB6F9A68124B1340FA6F936009E027
:103860007B681B6E43F020027B681A66012387F891
:10387000873000E000BF7B68002283F85C2097F867
:10388000873018468C37BD4690BD00BF00200240EF
:1038900000210240002302400063025800600258E9
:1038A000E0F0FFFF80B485B000AF78607B6803F084
:1038B0000703FB600B4BDB68BB60BA684FF6FF0386
:1038C0001340BB60FB681A02BB681A43064B1343E4
:1038D000BB60044ABB68D36000BF1437BD465DF8C7
:1038E000047B704700ED00E00000FA0580B400AFF3
:1038F000044BDB681B0A03F007031846BD465DF85E
:10390000047B704700ED00E080B483B000AF034655
:10391000FB80B7F90630002B0BDBFB8803F01F029E
:103920000749B7F906305B09012000FA02F241F8B5
:10393000232000BF0C37BD465DF8047B704700BFF5
:1039400000E100E080B483B000AF03463960FB8043
:10395000B7F90630002B0ADB3B68DAB20C49B7F93D
:1039600006301201D2B20B4483F800230AE03B6810
:10397000DAB20849FB8803F00F03043B1201D2B20C
:103980000B441A7600BF0C37BD465DF8047B7047C8
:1039900000E100E000ED00E080B489B000AFF86025
:1039A000B9607A60FB6803F00703FB61FB69C3F150
:1039B0000703042B28BF0423BB61FB690433062BD8
:1039C00002D9FB69033B00E000237B614FF0FF322B
:1039D000BB6902FA03F3DA43BB681A407B699A4079
:1039E0004FF0FF317B6901FA03F3D9437B680B4049
:1039F000134318462437BD465DF8047B704700002A
:103A000080B582B000AF78607B68013BB3F1807F06
:103A100001D301230FE00A4A7B68013B53600F2169
:103A20004FF0FF30FFF78EFF054B00229A60044BEA
:103A300007221A60002318460837BD4680BD00BF24
:103A400010E000E080B582B000AF78607868FFF7E2
:103A500029FF00BF0837BD4680BD80B586B000AFE6
:103A60000346B9607A60FB81FFF740FF78617A68AE
:103A7000B9687869FFF790FF0246B7F90E30114632
:103A80001846FFF75FFF00BF1837BD4680BD80B501
:103A900082B000AF0346FB80B7F906301846FFF747
:103AA00033FF00BF0837BD4680BD80B582B000AF90
:103AB00078607868FFF7A4FF034618460837BD46CC
:103AC00080BD000080B586B000AF7860FDF782FF52
:103AD00038617B68002B01D1012314E37B681B68EC
:103AE000664A93424AD07B681B68654A934245D038
:103AF0007B681B68634A934240D07B681B68624ABC
:103B000093423BD07B681B68604A934236D07B6807
:103B10001B685F4A934231D07B681B685D4A9342C1
:103B20002CD07B681B685C4A934227D07B681B685B
:103B30005A4A934222D07B681B68594A93421DD04F
:103B40007B681B68574A934218D07B681B68564AAB
:103B5000934213D07B681B68544A93420ED07B6813
:103B60001B68534A934209D07B681B68514A9342B1
:103B700004D07B681B68504A934201D1012300E0C6
:103B80000023002B00F03C817B68022283F8352063
:103B90007B68002283F834207B681B68374A934295
:103BA0004AD07B681B68364A934245D07B681B68C5
:103BB000344A934240D07B681B68334A93423BD0DF
:103BC0007B681B68314A934236D07B681B68304A59
:103BD000934231D07B681B682E4A93422CD07B687D
:103BE0001B682D4A934227D07B681B682B4A93425F
:103BF00022D07B681B682A4A93421DD07B681B68D1
:103C0000284A934218D07B681B68274A934213D0F6
:103C10007B681B68254A93420ED07B681B68244A48
:103C2000934209D07B681B68224A934204D07B6888
:103C30001B68214A934208D17B681B681A687B681D
:103C40001B6822F001021A6007E07B681B681A6893
:103C50007B681B6822F001021A602FE0FDF7BAFEB4
:103C600002463B69D31A052B28D97B6820225A6566
:103C70007B68032283F83520012344E210000240D0
:103C800028000240400002405800024070000240FC
:103C900088000240A0000240B80002401004024028
:103CA00028040240400402405804024070040240CC
:103CB00088040240A0040240B80402407B681B68EC
:103CC0001B6803F00103002BC8D17B681B681B68CD
:103CD0007B617A69844B13407B617B689A687B685F
:103CE000DB681A437B681B691A437B685B691A436C
:103CF0007B689B691A437B68DB691A437B681B6A94
:103D000013437A6913437B617B685B6A042B07D199
:103D10007B68DA6A7B681B6B13437A6913437B61A8
:103D20007B685B68282B03D97B685B682E2B1FD9C7
:103D30007B685B683E2B03D97B685B68422B17D995
:103D40007B685B68462B03D97B685B68482B0FD97F
:103D50007B685B684E2B03D97B685B68522B07D965
:103D60007B685B68732B05D97B685B68772B01D810
:103D7000012300E00023002B03D07B6943F4801370
:103D80007B617B681B687A691A607B681B685B696A
:103D90007B617B6923F007037B617B685B6A7A69DF
:103DA00013437B617B685B6A042B17D17B689B6A3A
:103DB0007A6913437B617B68DB6A002B0ED07868DD
:103DC00002F02EFB0346002B08D07B6840225A6588
:103DD0007B68012283F83520012394E17B681B680E
:103DE0007A695A61786802F069FA0346BB607B68B9
:103DF000DB6D03F01F033F229A40BB689A60CAE064
:103E00007B681B68394A934222D07B681B68384A1A
:103E100093421DD07B681B68364A934218D07B685A
:103E20001B68354A934213D07B681B68334A934220
:103E30000ED07B681B68324A934209D07B681B68AE
:103E4000304A934204D07B681B682F4A934201D1C9
:103E5000012300E00023002B00F094807B681B68A6
:103E6000224A934221D07B681B68214A93421CD08E
:103E70007B681B681F4A934217D07B681B681E4AE9
:103E8000934212D07B681B681C4A93420DD07B681A
:103E90001B681B4A934208D07B681B68194A9342EF
:103EA00003D07B681B68184A934200BF7B680222DC
:103EB00083F835207B68002283F834207B681B68F8
:103EC0001B687B617A69114B13407B617B689B683F
:103ED000402B1DD07B689B68802B02D14FF4804320
:103EE00017E0002315E000BF3F8010FE0854025881
:103EF0001C54025830540258445402585854025822
:103F00006C54025880540258945402580F00FEFF1B
:103F100010237A68D268D2081A437B681B69DB08D1
:103F20001A437B685B69DB081A437B689B69DB0883
:103F30001A437B68DB69DB081A437B681B6A1B0931
:103F400013437A6913437B617B681B687A691A6043
:103F50007B681B681A466E4B13446E4AA2FB032310
:103F60001B099A007B68DA65786802F0A7F90346B6
:103F7000FB607B68DB6D03F01F0301229A40FB6846
:103F80005A6008E07B6840225A657B68032283F808
:103F900035200123B7E07B681B685F4A934272D0EB
:103FA0007B681B685D4A93426DD07B681B685C4AE6
:103FB000934268D07B681B685A4A934263D07B68FF
:103FC0001B68594A93425ED07B681B68574A9342EC
:103FD00059D07B681B68564A934254D07B681B6853
:103FE000544A93424FD07B681B68534A93424AD04D
:103FF0007B681B68514A934245D07B681B68504AD6
:10400000934240D07B681B684E4A93423BD07B680A
:104010001B684D4A934236D07B681B684B4A9342DB
:1040200031D07B681B684A4A93422CD07B681B685E
:10403000484A934227D07B681B68474A934222D064
:104040007B681B68454A93421DD07B681B68444AC5
:10405000934218D07B681B68424A934213D07B6816
:104060001B68414A93420ED07B681B683F4A9342CB
:1040700009D07B681B683E4A934204D07B681B686A
:104080003C4A934201D1012300E00023002B32D0AF
:10409000786802F041FA7B689B68802B02D17B68CC
:1040A00000225A607B685A687B681B6ED2B21A6025
:1040B0007B685B6E7A68926E5A607B685B68002BE7
:1040C00010D07B685B68082B0CD8786802F0BEFAC9
:1040D0007B68DB6E00221A607B681B6F7A68526F08
:1040E0005A6008E07B680022DA667B6800221A6763
:1040F0007B6800225A677B6800225A657B68012230
:1041000083F83520002318461837BD4680BD00BF10
:10411000F8ABFDA7CDCCCCCC10000240280002406B
:1041200040000240580002407000024088000240F7
:10413000A0000240B80002401004024028040240DF
:1041400040040240580402407004024088040240C7
:10415000A0040240B8040240085402581C540258FB
:104160003054025844540258585402586C5402585F
:10417000805402589454025880B586B000AFF8605D
:10418000B9607A603B600023FB75FB68002B01D1AE
:10419000012326E2FB6893F83430012B01D102237E
:1041A0001FE2FB68012283F83420FB6893F8353066
:1041B000DBB2012B40F00A82FB68022283F8352033
:1041C000FB6800225A65FB681B68684A93424AD024
:1041D000FB681B68664A934245D0FB681B68654ACA
:1041E000934240D0FB681B68634A93423BD0FB6814
:1041F0001B68624A934236D0FB681B68604A934250
:1042000031D0FB681B685F4A93422CD0FB681B6867
:104210005D4A934227D0FB681B685C4A934222D0D8
:10422000FB681B685A4A93421DD0FB681B68594AB9
:10423000934218D0FB681B68574A934213D0FB681F
:104240001B68564A93420ED0FB681B68544A93423F
:1042500009D0FB681B68534A934204D0FB681B6873
:10426000514A934208D1FB681B681A68FB681B68B7
:1042700022F001021A6007E0FB681B681A68FB68FD
:104280001B6822F001021A603B687A68B968F86816
:1042900001F068FEFB681B68344A93424AD0FB6811
:1042A0001B68334A934245D0FB681B68314A9342EE
:1042B00040D0FB681B68304A93423BD0FB681B68C8
:1042C0002E4A934236D0FB681B682D4A934231D068
:1042D000FB681B682B4A93422CD0FB681B682A4A58
:1042E000934227D0FB681B68284A934222D0FB6880
:1042F0001B68274A93421DD0FB681B68254A9342DE
:1043000018D0FB681B68244A934213D0FB681B68D3
:10431000224A93420ED0FB681B68214A934209D07F
:10432000FB681B681F4A934204D0FB681B681E4A47
:10433000934201D1012300E00023002B36D0FB681B
:104340001B681B6823F01E02FB681B6842F0160204
:104350001A60FB681B6C002B3ED0FB681B681A6858
:10436000FB681B6842F008021A6035E0100002404A
:104370002800024040000240580002407000024005
:1043800088000240A0000240B80002401004024031
:1043900028040240400402405804024070040240D5
:1043A00088040240A0040240B8040240FB681B6875
:1043B0001B6823F00E02FB681B6842F00A021A60B9
:1043C000FB681B6C002B07D0FB681B681A68FB6836
:1043D0001B6842F004021A60FB681B68834A934220
:1043E00072D0FB681B68824A93426DD0FB681B68E1
:1043F000804A934268D0FB681B687F4A934263D02F
:10440000FB681B687D4A93425ED0FB681B687C4A50
:10441000934259D0FB681B687A4A934254D0FB6898
:104420001B68794A93424FD0FB681B68774A9342D6
:104430004AD0FB681B68764A934245D0FB681B68EC
:10444000744A934240D0FB681B68734A93423BD046
:10445000FB681B68714A934236D0FB681B68704A40
:10446000934231D0FB681B686E4A93422CD0FB68A4
:104470001B686D4A934227D0FB681B686B4A9342C6
:1044800022D0FB681B686A4A93421DD0FB681B68F8
:10449000684A934218D0FB681B68674A934213D05E
:1044A000FB681B68654A93420ED0FB681B68644A30
:1044B000934209D0FB681B68624A934204D0FB68B0
:1044C0001B68614A934201D1012300E00023002BC5
:1044D0001AD0FB681B6E1B6803F48033002B07D0D7
:1044E000FB681B6E1A68FB681B6E42F480721A60D0
:1044F000FB68DB6E002B07D0FB68DB6E1A68FB687D
:10450000DB6E42F480721A60FB681B68374A934284
:104510004AD0FB681B68364A934245D0FB681B684B
:10452000344A934240D0FB681B68334A93423BD0E5
:10453000FB681B68314A934236D0FB681B68304ADF
:10454000934231D0FB681B682E4A93422CD0FB6803
:104550001B682D4A934227D0FB681B682B4A934265
:1045600022D0FB681B682A4A93421DD0FB681B6857
:10457000284A934218D0FB681B68274A934213D0FD
:10458000FB681B68254A93420ED0FB681B68244ACF
:10459000934209D0FB681B68224A934204D0FB680F
:1045A0001B68214A934208D1FB681B681A68FB68A4
:1045B0001B6842F001021A6012E0FB681B681A686F
:1045C000FB681B6842F001021A6009E0FB684FF4C7
:1045D00000625A65FB68002283F834200123FB75D2
:1045E000FB7D18461837BD4680BD00BF1000024055
:1045F0002800024040000240580002407000024083
:1046000088000240A0000240B800024010040240AE
:104610002804024040040240580402407004024052
:1046200088040240A0040240B80402400854025822
:104630001C540258305402584454025858540258DA
:104640006C540258805402589454025880B586B075
:1046500000AF7860FDF7BEF938617B68002B01D1AF
:104660000123DCE27B6893F83530DBB2022B08D003
:104670007B6880225A657B68002283F834200123FE
:10468000CDE27B681B68764A93424AD07B681B6800
:10469000744A934245D07B681B68734A934240D06A
:1046A0007B681B68714A93423BD07B681B68704AE9
:1046B000934236D07B681B686E4A934231D07B6848
:1046C0001B686D4A93422CD07B681B686B4A9342EF
:1046D00027D07B681B686A4A934222D07B681B689C
:1046E000684A93421DD07B681B68674A934218D082
:1046F0007B681B68654A934213D07B681B68644AD9
:1047000093420ED07B681B68624A934209D07B6853
:104710001B68614A934204D07B681B685F4A9342DE
:1047200001D1012300E00023002B13D07B681B681C
:104730001A687B681B6822F01E021A607B681B687F
:104740005A697B681B6822F080025A617B681B688B
:104750007B610AE07B681B681A687B681B6822F033
:104760000E021A607B681B687B617B681B683C4A91
:10477000934272D07B681B683A4A93426DD07B6843
:104780001B68394A934268D07B681B68374A93425A
:1047900063D07B681B68364A93425ED07B681B6897
:1047A000344A934259D07B681B68334A934254D0B1
:1047B0007B681B68314A93424FD07B681B68304A44
:1047C00093424AD07B681B682E4A934245D07B684F
:1047D0001B682D4A934240D07B681B682B4A93424A
:1047E0003BD07B681B682A4A934236D07B681B68A3
:1047F000284A934231D07B681B68274A93422CD0C9
:104800007B681B68254A934227D07B681B68244A33
:10481000934222D07B681B68224A93421DD07B685A
:104820001B68214A934218D07B681B681F4A934239
:1048300013D07B681B681E4A93420ED07B681B68AE
:104840001C4A934209D07B681B681B4A934204D0E0
:104850007B681B68194A934232D1012331E000BFC3
:104860001000024028000240400002405800024070
:104870007000024088000240A0000240B8000240E0
:104880001004024028040240400402405804024040
:104890007004024088040240A0040240B8040240B0
:1048A000085402581C5402583054025844540258B8
:1048B000585402586C540258805402589454025868
:1048C0000023002B07D07B681B6E1A687B681B6E69
:1048D00022F480721A607B681B686D4A93424AD04A
:1048E0007B681B686B4A934245D07B681B686A4AA9
:1048F000934240D07B681B68684A93423BD07B68F8
:104900001B68674A934236D07B681B68654A9342AE
:1049100031D07B681B68644A93422CD07B681B684B
:10492000624A934227D07B681B68614A934222D037
:104930007B681B685F4A93421DD07B681B685E4A98
:10494000934218D07B681B685C4A934213D07B6803
:104950001B685B4A93420ED07B681B68594A93429E
:1049600009D07B681B68584A934204D07B681B6857
:10497000564A934208D17B681B681A687B681B689B
:1049800022F001021A6007E07B681B681A687B68E6
:104990001B6822F001021A6013E0FDF71BF80246C3
:1049A0003B69D31A052B0CD97B6820225A657B689A
:1049B000032283F835207B68002283F8342001230A
:1049C0002DE17B691B6803F00103002BE5D17B68B7
:1049D0001B682F4A93424AD07B681B682D4A93423A
:1049E00045D07B681B682C4A934240D07B681B688B
:1049F0002A4A93423BD07B681B68294A934236D0AF
:104A00007B681B68274A934231D07B681B68264A23
:104A100093422CD07B681B68244A934227D07B6842
:104A20001B68234A934222D07B681B68214A934229
:104A30001DD07B681B68204A934218D07B681B6896
:104A40001E4A934213D07B681B681D4A93420ED0C6
:104A50007B681B681B4A934209D07B681B681A4A13
:104A6000934204D07B681B68184A934201D101230A
:104A700000E00023002B2BD07B689B6DBB607B6824
:104A8000DB6D03F01F033F229A40BB689A602AE067
:104A9000100002402800024040000240580002403E
:104AA0007000024088000240A0000240B8000240AE
:104AB000100402402804024040040240580402400E
:104AC0007004024088040240A0040240B80402407E
:104AD0007B689B6DFB607B68DB6D03F01F0301222D
:104AE0009A40FB685A607B681B684F4A934272D0B9
:104AF0007B681B684D4A93426DD07B681B684C4AAB
:104B0000934268D07B681B684A4A934263D07B68B3
:104B10001B68494A93425ED07B681B68474A9342B0
:104B200059D07B681B68464A934254D07B681B6807
:104B3000444A93424FD07B681B68434A93424AD011
:104B40007B681B68414A934245D07B681B68404A9A
:104B5000934240D07B681B683E4A93423BD07B68BF
:104B60001B683D4A934236D07B681B683B4A9342A0
:104B700031D07B681B683A4A93422CD07B681B6813
:104B8000384A934227D07B681B68374A934222D029
:104B90007B681B68354A93421DD07B681B68344A8A
:104BA000934218D07B681B68324A934213D07B68CB
:104BB0001B68314A93420ED07B681B682F4A934290
:104BC00009D07B681B682E4A934204D07B681B681F
:104BD0002C4A934201D1012300E00023002B15D081
:104BE0007B685B6E7A68926E5A607B68DB6E002B26
:104BF0000CD07B68DB6E1A687B68DB6E22F48072F7
:104C00001A607B681B6F7A68526F5A607B6801225A
:104C100083F835207B68002283F83420002318466F
:104C20001837BD4680BD00BF10000240280002407A
:104C300040000240580002407000024088000240DC
:104C4000A0000240B80002401004024028040240C4
:104C500040040240580402407004024088040240AC
:104C6000A0040240B8040240085402581C540258E0
:104C70003054025844540258585402586C54025844
:104C8000805402589454025880B584B000AF7860C4
:104C90007B68002B01D1012305E27B6893F8353056
:104CA000DBB2022B04D07B6880225A650123FAE133
:104CB0007B681B688C4A93424AD07B681B688B4A8E
:104CC000934245D07B681B68894A934240D07B68F9
:104CD0001B68884A93423BD07B681B68864A934294
:104CE00036D07B681B68854A934231D07B681B684D
:104CF000834A93422CD07B681B68824A934227D018
:104D00007B681B68804A934222D07B681B687F4A7D
:104D100093421DD07B681B687D4A934218D07B6804
:104D20001B687C4A934213D07B681B687A4A934283
:104D30000ED07B681B68794A934209D07B681B6858
:104D4000774A934204D07B681B68764A934201D12C
:104D5000012300E00023002B65D07B68042283F848
:104D600035207B681B68604A93424AD07B681B6889
:104D70005E4A934245D07B681B685D4A934240D0AF
:104D80007B681B685B4A93423BD07B681B685A4A2E
:104D9000934236D07B681B68584A934231D07B6877
:104DA0001B68574A93422CD07B681B68554A934234
:104DB00027D07B681B68544A934222D07B681B68CB
:104DC000524A93421DD07B681B68514A934218D0C7
:104DD0007B681B684F4A934213D07B681B684E4A1E
:104DE00093420ED07B681B684C4A934209D07B6883
:104DF0001B684B4A934204D07B681B68494A934224
:104E000008D17B681B681A687B681B6822F0010266
:104E10001A6047E17B681B681A687B681B6822F090
:104E200001021A603EE17B681B681A687B681B6898
:104E300022F00E021A607B681B682B4A93424AD00C
:104E40007B681B68294A934245D07B681B68284AC7
:104E5000934240D07B681B68264A93423BD07B68D4
:104E60001B68254A934236D07B681B68234A9342CD
:104E700031D07B681B68224A93422CD07B681B6828
:104E8000204A934227D07B681B681F4A934222D056
:104E90007B681B681D4A93421DD07B681B681C4AB7
:104EA000934218D07B681B681A4A934213D07B68E0
:104EB0001B68194A93420ED07B681B68174A9342BD
:104EC00009D07B681B68164A934204D07B681B6834
:104ED000144A934228D17B681B681A687B681B6858
:104EE00022F001021A6027E0100002402800024070
:104EF000400002405800024070000240880002401A
:104F0000A0000240B8000240100402402804024001
:104F100040040240580402407004024088040240E9
:104F2000A0040240B80402407B681B681A687B68D2
:104F30001B6822F001021A607B681B685C4A93427E
:104F400072D07B681B685B4A93426DD07B681B689C
:104F5000594A934268D07B681B68584A934263D091
:104F60007B681B68564A93425ED07B681B68554A33
:104F7000934259D07B681B68534A934254D07B6854
:104F80001B68524A93424FD07B681B68504A934239
:104F90004AD07B681B684F4A934245D07B681B68A8
:104FA0004D4A934240D07B681B684C4A93423BD0A9
:104FB0007B681B684A4A934236D07B681B68494A23
:104FC000934231D07B681B68474A93422CD07B6860
:104FD0001B68464A934227D07B681B68444A934229
:104FE00022D07B681B68434A93421DD07B681B68B4
:104FF000414A934218D07B681B68404A934213D0C1
:105000007B681B683E4A93420ED07B681B683D4A12
:10501000934209D07B681B683B4A934204D07B686B
:105020001B683A4A934201D1012300E00023002B80
:1050300028D07B681B6E1A687B681B6E22F4807216
:105040001A607B689B6DFB607B68DB6D03F01F0360
:1050500001229A40FB685A607B685B6E7A68926EA8
:105060005A607B68DB6E002B0CD07B68DB6E1A68A5
:105070007B68DB6E22F480721A607B681B6F7A6833
:10508000526F5A607B68012283F835207B680022CA
:1050900083F834207B681B6D002B03D07B681B6D6D
:1050A00078689847002318461037BD4680BD00BF7A
:1050B0001000024028000240400002405800024018
:1050C0007000024088000240A0000240B800024088
:1050D00010040240280402404004024058040240E8
:1050E0007004024088040240A0040240B804024058
:1050F000085402581C540258305402584454025860
:10510000585402586C54025880540258945402580F
:1051100080B58AB000AF78600023FB60674B1B68E6
:10512000674AA2FB03239B0A7B627B689B6D3B6201
:105130007B689B6DFB613B6A1B68BB61FB691B68FD
:105140007B617B681B685F4A93424AD07B681B681F
:105150005D4A934245D07B681B685C4A934240D0CD
:105160007B681B685A4A93423BD07B681B68594A4C
:10517000934236D07B681B68574A934231D07B6894
:105180001B68564A93422CD07B681B68544A934252
:1051900027D07B681B68534A934222D07B681B68E8
:1051A000514A93421DD07B681B68504A934218D0E5
:1051B0007B681B684E4A934213D07B681B684D4A3C
:1051C00093420ED07B681B684B4A934209D07B68A0
:1051D0001B684A4A934204D07B681B68484A934242
:1051E00001D1012300E00023002B00F02B847B6819
:1051F000DB6D03F01F0308229A40BB691340002BAC
:1052000000F0A2807B681B682E4A93424AD07B68DC
:105210001B682D4A934245D07B681B682B4A9342FA
:1052200040D07B681B682A4A93423BD07B681B684E
:10523000284A934236D07B681B68274A934231D074
:105240007B681B68254A93422CD07B681B68244AE4
:10525000934227D07B681B68224A934222D07B6806
:105260001B68214A93421DD07B681B681F4A9342EA
:1052700018D07B681B681E4A934213D07B681B685A
:105280001C4A93420ED07B681B681B4A934209D08C
:105290007B681B68194A934204D07B681B68184AD4
:1052A00093422FD17B681B681B6803F00403002B1B
:1052B00014BF01230023DBB22EE000BF0000002456
:1052C000B5814E1B10000240280002404000024001
:1052D000580002407000024088000240A0000240D6
:1052E000B80002401004024028040240400402407A
:1052F000580402407004024088040240A0040240A6
:10530000B80402407B681B681B6803F00803002B8D
:1053100014BF01230023DBB2002B15D07B681B6870
:105320001A687B681B6822F004021A607B68DB6DD8
:1053300003F01F0308229A403B6A9A607B685B6D0A
:1053400043F001027B685A657B68DB6D03F01F0345
:10535000BA6922FA03F303F00103002B6ED07B68D5
:105360001B68694A93424AD07B681B68674A93422C
:1053700045D07B681B68664A934240D07B681B68B7
:10538000644A93423BD07B681B68634A934236D0A1
:105390007B681B68614A934231D07B681B68604A16
:1053A00093422CD07B681B685E4A934227D07B686F
:1053B0001B685D4A934222D07B681B685B4A93421C
:1053C0001DD07B681B685A4A934218D07B681B68C3
:1053D000584A934213D07B681B68574A93420ED0B9
:1053E0007B681B68554A934209D07B681B68544A06
:1053F000934204D07B681B68524A93420AD17B686F
:105400001B685B6903F08003002B14BF012300239A
:10541000DBB203E07B681B681B680023002B0DD008
:105420007B68DB6D03F01F0301229A403B6A9A60A0
:105430007B685B6D43F002027B685A657B68DB6DBD
:1054400003F01F0304229A40BB691340002B00F0B5
:105450008F807B681B682C4A93424AD07B681B680C
:105460002A4A934245D07B681B68294A934240D020
:105470007B681B68274A93423BD07B681B68264A9F
:10548000934236D07B681B68244A934231D07B68B4
:105490001B68234A93422CD07B681B68214A9342A5
:1054A00027D07B681B68204A934222D07B681B6808
:1054B0001E4A93421DD07B681B681D4A934218D038
:1054C0007B681B681B4A934213D07B681B681A4A8F
:1054D00093420ED07B681B68184A934209D07B68C0
:1054E0001B68174A934204D07B681B68154A934295
:1054F0002AD17B681B681B6803F00203002B14BFD2
:1055000001230023DBB223E0100002402800024008
:1055100040000240580002407000024088000240F3
:10552000A0000240B80002401004024028040240DB
:1055300040040240580402407004024088040240C3
:10554000A0040240B80402407B681B681B6800236B
:10555000002B0DD07B68DB6D03F01F0304229A4003
:105560003B6A9A607B685B6D43F004027B685A6516
:105570007B68DB6D03F01F0310229A40BB69134068
:10558000002B00F0A6807B681B68854A93424AD0B6
:105590007B681B68834A934245D07B681B68824ABC
:1055A000934240D07B681B68804A93423BD07B6823
:1055B0001B687F4A934236D07B681B687D4A9342C2
:1055C00031D07B681B687C4A93422CD07B681B6877
:1055D0007A4A934227D07B681B68794A934222D04B
:1055E0007B681B68774A93421DD07B681B68764AAC
:1055F000934218D07B681B68744A934213D07B682F
:105600001B68734A93420ED07B681B68714A9342B1
:1056100009D07B681B68704A934204D07B681B6882
:105620006E4A93420AD17B681B681B6803F008032B
:10563000002B14BF01230023DBB209E07B681B6849
:105640001B6803F00403002B14BF01230023DBB20B
:10565000002B3ED07B68DB6D03F01F0310229A40C5
:105660003B6A9A607B681B681B6803F48023002BED
:1056700018D07B681B681B6803F40023002B08D13B
:105680007B681B6C002B24D07B681B6C7868984768
:105690001FE07B689B6C002B1BD07B689B6C786841
:1056A000984716E07B681B681B6803F48073002B27
:1056B00007D17B681B681A687B681B6822F00802A8
:1056C0001A607B681B6C002B03D07B681B6C7868AE
:1056D00098477B68DB6D03F01F0320229A40BB696B
:1056E0001340002B00F010817B681B682C4A93420A
:1056F0004AD07B681B682B4A934245D07B681B6865
:10570000294A934240D07B681B68284A93423BD089
:105710007B681B68264A934236D07B681B68254A03
:10572000934231D07B681B68234A93422CD07B681C
:105730001B68224A934227D07B681B68204A934209
:1057400022D07B681B681F4A93421DD07B681B6870
:105750001D4A934218D07B681B681C4A934213D0A1
:105760007B681B681A4A93420ED07B681B68194AF3
:10577000934209D07B681B68174A934204D07B6828
:105780001B68164A93422BD17B681B681B6803F089
:105790001003002B14BF01230023DBB22AE000BF5B
:1057A0001000024028000240400002405800024021
:1057B0007000024088000240A0000240B800024091
:1057C00010040240280402404004024058040240F1
:1057D0007004024088040240A0040240B804024061
:1057E0007B681B681B6803F00203002B14BF0123B6
:1057F0000023DBB2002B00F087807B68DB6D03F0B9
:105800001F0320229A403B6A9A607B6893F83530E8
:10581000DBB2042B39D17B681B681A687B681B6874
:1058200022F016021A607B681B685A697B681B6845
:1058300022F080025A617B681B6C002B03D17B68CD
:105840009B6C002B07D07B681B681A687B681B6801
:1058500022F008021A607B68DB6D03F01F033F2211
:105860009A403B6A9A607B68012283F835207B6806
:10587000002283F834207B681B6D002B00F04A83E4
:105880007B681B6D7868984744E37B681B681B68DE
:1058900003F48023002B18D07B681B681B6803F47B
:1058A0000023002B08D17B685B6C002B2CD07B681D
:1058B0005B6C7868984727E07B68DB6B002B23D014
:1058C0007B68DB6B786898471EE07B681B681B6809
:1058D00003F48073002B0FD17B681B681A687B6808
:1058E0001B6822F010021A607B68012283F83520C1
:1058F0007B68002283F834207B68DB6B002B03D0AD
:105900007B68DB6B786898477B685B6D002B00F0E9
:1059100006837B685B6D03F00103002B00F0888039
:105920007B68042283F835207B681B687A4A93429F
:105930004AD07B681B68794A934245D07B681B68D4
:10594000774A934240D07B681B68764A93423BD0AB
:105950007B681B68744A934236D07B681B68734A25
:10596000934231D07B681B68714A93422CD07B688C
:105970001B68704A934227D07B681B686E4A93422B
:1059800022D07B681B686D4A93421DD07B681B68E0
:105990006B4A934218D07B681B686A4A934213D0C3
:1059A0007B681B68684A93420ED07B681B68674A15
:1059B000934209D07B681B68654A934204D07B6898
:1059C0001B68644A934208D17B681B681A687B682D
:1059D0001B6822F001021A6007E07B681B681A68E6
:1059E0007B681B6822F001021A60FB680133FB60D0
:1059F0007A6A9A4207D37B681B681B6803F001032D
:105A0000002BF2D100E000BF7B681B681B6803F02D
:105A10000103002B04D07B68032283F8352003E0C8
:105A20007B68012283F835207B68002283F83420CC
:105A30007B68DB6C002B00F072827B68DB6C786823
:105A400098476CE27B681B68434A934222D07B688C
:105A50001B68424A93421DD07B681B68404A9342B0
:105A600018D07B681B683F4A934213D07B681B6841
:105A70003D4A93420ED07B681B683C4A934209D052
:105A80007B681B683A4A934204D07B681B68394A9A
:105A9000934201D1012300E00023002B00F03F825C
:105AA0007B681B681B683B617B68DB6D03F01F0331
:105AB00004229A407B691340002B00F0CD803B69A3
:105AC00003F00403002B00F0C7807B68DB6D03F05C
:105AD0001F0304229A40FB695A603B6903F40043A8
