:020000040800F2
:100000000000052491630108554D00085D4D00086E
:100010006D4D00087D4D00088D4D0008000000006A
:100020000000000000000000000000009D4D0008DE
:10003000AB4D000800000000B94D0008C74D000896
:10004000E1630108E1630108E1630108E16301087C
:10005000E1630108E1630108E1630108E16301086C
:10006000D54D0008E1630108694E0008E16301080D
:10007000E1630108E1630108E1630108E16301084C
:10008000E1630108E1630108E1630108E16301083C
:10009000E1630108E1630108E1630108914E000892
:1000A000E1630108E1630108E1630108E16301081C
:1000B000E1630108055E0008C14F0008595F0008B0
:1000C0006D5F0008E1630108E1630108E163010875
:1000D000E1630108E163010811530008E1630108CD
:1000E000B14F0008E163010800000000E16301086E
:1000F000E1630108E1630108E1630108E1630108CC
:10010000E1630108E1630108E1630108E1630108BB
:10011000E1630108E1630108F1500008E1630108AF
:100120002D58000841580008E15F0008F55F0008FD
:10013000E1630108E1630108E1630108E16301088B
:1001400000000000000000000000000000000000AF
:10015000E1630108E1630108E1630108E16301086B
:10016000E1630108E1630108E1630108E16301085B
:10017000E1630108E1630108E16301080000000098
:10018000E1630108E1630108E1630108E16301083B
:10019000E1630108E1630108E1630108E16301082B
:1001A000E1630108E1630108E16301080000000068
:1001B000E1630108E1630108E1630108E16301080B
:1001C000E1630108E1630108000000000000000095
:1001D0000000000000000000E163010800000000D2
:1001E000000000000000000000000000000000000F
:1001F0000000000000000000E1630108E163010865
:10020000E1630108E163010800000000E163010807
:10021000E1630108E1630108E1630108E1630108AA
:10022000E163010800000000E16301080000000034
:10023000E1630108E163010800000000E1630108D7
:10024000E1630108E1630108E1630108E16301087A
:10025000E1630108E1630108E1630108E16301086A
:10026000E1630108E1630108E1630108E16301085A
:10027000E1630108E1630108E16301080000000097
:10028000E1630108E1630108E1630108E16301083A
:1002900000000000E1630108E163010800000000C4
:1002A00000000000E1630108E1630108E163010867
:1002B000E1630108E1630108E1630108E16301080A
:0C02C000E1630108E1630108916000089F
:1002D00010B5054C237833B9044B13B10448AFF380
:1002E00000800123237010BD78040024000000006A
:1002F000689E020808B5034B1BB103490348AFF3DE
:10030000008008BD000000007C040024689E0208F4
:10031000034613F8012B002AFBD1181A0138704745
:1003200001F0FF01102A2BDB10F0070F08D010F8A6
:10033000013B013A8B422DD010F0070F42B3F6D1AA
:10034000F0B441EA012141EA014122F007047FF0C3
:1003500000070023F0E80256083C85EA010586EA1A
:10036000010685FA47F5A3FA87F586FA47F6A5FA56
:1003700087F68EB9EED1F0BC01F0FF0102F0070262
:1003800032B110F8013B013A83EA010313B1F8D10D
:100390000020704701387047002D06BF35460338EE
:1003A000073815F0010F07D1013015F4807F02BF27
:1003B000013015F4C03F0130F0BC0138704700BF78
:1003C00081F0004102E000BF83F0004330B54FEA06
:1003D00041044FEA430594EA050F08BF90EA020F73
:1003E0001FBF54EA000C55EA020C7FEA645C7FEA06
:1003F000655C00F0E2804FEA5454D4EB5555B8BF29
:100400006D420CDD2C4480EA020281EA030382EA99
:10041000000083EA010180EA020281EA0303362D2B
:1004200088BF30BD11F0004F4FEA01314FF4801CFE
:100430004CEA113102D0404261EB410113F0004F10
:100440004FEA03334CEA133302D0524263EB4303C7
:1004500094EA050F00F0A780A4F10104D5F1200E65
:100460000DDB02FA0EFC22FA05F2801841F10001C0
:1004700003FA0EF2801843FA05F359410EE0A5F194
:1004800020050EF1200E012A03FA0EFC28BF4CF0C5
:10049000020C43FA05F3C01851EBE37101F000457B
:1004A00007D54FF0000EDCF1000C7EEB00006EEB88
:1004B0000101B1F5801F1BD3B1F5001F0CD3490812
:1004C0005FEA30004FEA3C0C04F101044FEA445269
:1004D00012F5800F80F09A80BCF1004F08BF5FEAF0
:1004E000500C50F1000041EB045141EA050130BDD0
:1004F0005FEA4C0C404141EB0101013C28BFB1F5E2
:10050000801FE9D291F0000F04BF01460020B1FA2C
:1005100081F308BF2033A3F10B03B3F120020CDAFF
:100520000C3208DD02F1140CC2F10C0201FA0CF0DD
:1005300021FA02F10CE002F11402D8BFC2F1200C42
:1005400001FA02F120FA0CFCDCBF41EA0C019040F8
:10055000E41AA2BF01EB0451294330BD6FEA040441
:100560001F3C1CDA0C340EDC04F11404C4F120022C
:1005700020FA04F001FA02F340EA030021FA04F33E
:1005800045EA030130BDC4F10C04C4F1200220FA95
:1005900002F001FA04F340EA0300294630BD21FAD3
:1005A00004F0294630BD94F0000F83F4801306BF99
:1005B00081F480110134013D4EE77FEA645C18BF8D
:1005C0007FEA655C29D094EA050F08BF90EA020F24
:1005D00005D054EA000C04BF1946104630BD91EA1C
:1005E000030F1EBF0021002030BD5FEA545C05D11F
:1005F0004000494128BF41F0004130BD14F580045E
:100600003CBF01F5801130BD01F0004545F0FE41D1
:1006100041F470014FF0000030BD7FEA645C1ABF06
:10062000194610467FEA655C1CBF0B46024650EA3D
:10063000013406BF52EA033591EA030F41F4002169
:1006400030BD00BF90F0000F04BF0021704730B5EF
:100650004FF4806404F132044FF000054FF00001C4
:1006600050E700BF90F0000F04BF0021704730B585
:100670004FF4806404F1320410F0004548BF40425A
:100680004FF000013EE700BF42004FEAE2014FEAAF
:1006900031014FEA02701FBF12F07F4393F07F4F8A
:1006A00081F06051704732F07F4208BF704793F08D
:1006B0007F4F04BF41F40021704730B54FF46074A0
:1006C00001F0004521F000411CE700BF50EA0102A3
:1006D00008BF704730B54FF000050AE050EA01024C
:1006E00008BF704730B511F0004502D5404261EBBC
:1006F00041014FF4806404F132045FEA915C3FF4FD
:10070000D8AE4FF003025FEADC0C18BF03325FEA99
:10071000DC0C18BF033202EBDC02C2F1200300FA4A
:1007200003FC20FA02F001FA03FE40EA0E0021FA6F
:1007300002F11444BDE600BF53B94AB9002908BF0D
:1007400000281CBF4FF0FF314FF0FF3000F08EB992
:10075000ADF1080C6DE904CE00F026F8DDF804E0F8
:10076000DDE9022304B070479FED0B6B41EC170BE2
:100770009FED0B5B27EE066BBCEEC66BB8EE464BEF
:10078000A4EE457BFCEEC77B16EE101A17EE900A1E
:10079000704700BFAFF30080000000000000F03D94
:1007A000000000000000F0412DE9F047089D0446DC
:1007B0008C46002B40F083808A42174647D9B2FA14
:1007C00082F242B1C2F1200024FA00F09140974039
:1007D00040EA010C94404FEA1748230CBCFBF8F6A2
:1007E0001FFA87FE08FB16C143EA014306FB0EF120
:1007F000994209D9FB1806F1FF3080F0198199421E
:1008000040F21681023E3B445B1AA4B2B3FBF8F0FF
:1008100008FB103344EA034400FB0EFEA64509D949
:100820003C1900F1FF3380F00581A64540F20281BA
:1008300002383C4440EA0640A4EB0E0400261DB1F9
:10084000D4400023C5E900433146BDE8F08702B932
:10085000FFDEB2FA82F2002A50D1CB1B4FEA174ECC
:100860001FFA87F80126B3FBFEFC210C0EFB1C339C
:1008700041EA034108FB0CF38B4207D979180CF1CC
:10088000FF3002D28B4200F2E9808446C91AA3B23B
:10089000B1FBFEF00EFB101143EA014408FB00F827
:1008A000A04507D93C1900F1FF3302D2A04500F260
:1008B000D9801846A4EB080440EA0C40BFE78B42FD
:1008C00009D9002D00F0B1800026C5E900013046AD
:1008D0003146BDE8F087B3FA83F6002E4AD18B4249
:1008E00002D3824200F2B880841A61EB0301012036
:1008F0008C46002DA8D0C5E9004CA5E7C2F1200325
:1009000020FA03F6974001FA02F04FEA174ED94059
:100910003043030CB1FBFEF61FFA87F80EFB1611ED
:1009200043EA014306FB08F1994204FA02F409D9AB
:10093000FB1806F1FF3C80F08D80994240F28A80DE
:10094000023E3B445B1A81B2B3FBFEF00EFB103358
:1009500041EA034100FB08F38B4207D9791800F103
:10096000FF3C73D28B4271D902383944CB1A40EA2A
:10097000064678E7C6F1200C03FA06F422FA0CF3D7
:100980001C4320FA0CF701FA06F34FEA144E21FA41
:100990000CF11F433B0CB1FBFEF91FFA84F80EFB70
:1009A000191143EA014109FB08FA8A4502FA06F2E5
:1009B00000FA06F308D9611809F1FF3048D28A45D8
:1009C00046D9A9F102092144A1EB0A01BFB2B1FB4A
:1009D000FEF00EFB101147EA014700FB08F8B8458E
:1009E00007D9E71900F1FF312ED2B8452CD90238CA
:1009F000274440EA0940A7EB0807A0FB02894F45BE
:100A0000C64649461AD317D05DB1B3EB0E0267EB69
:100A1000010707FA0CFCF2404CEA0202F740C5E974
:100A2000002700263146BDE8F0872E4628460BE712
:100A30000646E9E61846FDE64345E5D2B8EB020E68
:100A400069EB04010138DFE70846D2E760468DE72D
:100A50008146B9E7664675E730464AE7ACF1020CD5
:100A6000394413E702383C4424E700BF704700BF15
:100A700080B586B000AF786007F10C0300221A60E1
:100A80005A609A607B68244A1A607B684FF4A0120F
:100A90005A607B6808229A607B6801221A617B6831
:100AA00004225A617B6800221A767B6800225A76FB
:100AB0007B680122DA617B68002283F820207B6852
:100AC00000229A627B680022DA627B6800221A6345
:100AD0007B680022DA637B6800221A647B6800224C
:100AE00083F84420786816F01FF80346002B01D0E5
:100AF0000BF0C2FB0023FB6007F10C03194678687A
:100B000017F0FEFB0346002B01D00BF0B5FB00BF36
:100B10001837BD4680BD00BF0020024080B582B0BE
:100B200000AF78603960124A3B681360104B0622B0
:100B30005A600F4B05229A600D4B40F2FF72DA604B
:100B40000B4B04221A610A4B00225A61084B002207
:100B500083F821200649786816F0EEFB0346002B47
:100B600001D00BF089FB00BF0837BD4680BD00BF38
:100B70009404002480B584B000AF7860396000230D
:100B8000FB6039687868FFF7C9FF786816F0D4F918
:100B90000121786816F0CEFA0346002B03D178685D
:100BA00016F0BCFBF860786816F090FAFB681846FF
:100BB0001037BD4680BD80B485B000AF7860396025
:100BC0000023FB60FB6818461437BD465DF8047BC4
:100BD0007047000080B483B000AF0346FB80FB8801
:100BE00007EE903AF8EEE77A9FED087A67EE877A9B
:100BF0009FED077AC7EE876AF0EE667AB0EE670A75
:100C00000C37BD465DF8047B704700BF333353405B
:100C100000F07F4580B582B000AF7860164A7B68EF
:100C200013601EF0E5FA0346144A1360134B1A686A
:100C3000114B1B68DB6810490968496801FB03F325
:100C4000B2FBF3F307EE903AF8EE677AFCEEE77A40
:100C500017EE902A0A4B1A600A4B60221A60094B61
:100C600000225A60074B00229A60064B00221A614C
:100C700000BF0837BD4680BD48200024D4040024AE
:100C8000D8040024B804002480B582B000AF786096
:100C9000064B1A687B685B6A1946104621F056FEBF
:100CA000034618460837BD4680BD00BF48200024D3
:100CB00080B582B000AF78607B681A897B685B89F9
:100CC0009A4204D17B681B89002B40F0A8807B6886
:100CD0001A897B685A817B681B89B3F5805F04D3CE
:100CE0007B68DB69002B00F09C80504B1B68DA6846
:100CF0007B68DA614E4B1B6807EE903AF8EE677A34
:100D00007B68C3ED047A7B68DB78002B02D0012B73
:100D10002ED087E07B681B891A467B68DB6903FB62
:100D200002F307EE903AB8EE677ADFED426AC7EE5B
:100D3000267A9FED417A27EE877A7B68DB6907EE9A
:100D4000903AF8EE677ADFED3D6A67EEA67A77EEC5
:100D5000277AB0EE670A28F0F7FCF0EE407AFCEE56
:100D6000E77A17EE903A9BB21A467B685A612DE0FB
:100D70007B681B891A467B68DB6903FB02F307EE7D
:100D8000903AB8EE677ADFED2B6AC7EE267A9FEDD0
:100D90002C7A27EE877A7B68DB6907EE903AF8EECB
:100DA000677ADFED286A67EEA67A77EE277AB0EEEB
:100DB000670A28F0C9FCF0EE407AFCEEE77A17EEFD
:100DC000903A9BB21A467B685A6100BF7B685B69A8
:100DD00007EE903AF8EE677A9FED1B7A27EE877A56
:100DE0007B68DB6907EE903AF8EE677AC7EE276A10
:100DF000B0EE660A28F0A8FCF0EE407AFCEEE77A46
:100E000017EE903A9BB2DAB27B6883F820207B68B9
:100E1000DA697B685B69D21A7B689A6102E000BF7D
:100E200000E000BF0837BD4680BD00BF4820002459
:100E3000D804002400F07F4548E13A3FEC51383EA9
:100E40007593583F000000000000C84280B584B090
:100E500000AF78600023FB737B685B78002B22D0A7
:100E60007B6893F820207B6893F821309A4206D162
:100E70007B6893F82030002B01D0002331E07B68A1
:100E800093F820207B6883F821207B685A69174BF0
:100E90001B68DB689A4201D9002322E07B685B690A
:100EA000134A536002E0124B00225A600F4B1A683B
:100EB0007B685B6A1946104621F064FE0B4B18688C
:100EC0007B685B6A1A460A4922F0A6FC0346FB735C
:100ED000064B1A687B685B6A1946104621F036FD9E
:100EE000FB7B18461037BD4680BD00BF482000245C
:100EF000B804002480B483B000AF0346FB71FB79D3
:100F0000002B04D0FB79022B01D8012300E0002341
:100F1000DBB218460C37BD465DF8047B7047000015
:100F200080B582B000AF7860054A7B681360044BDF
:100F30001B681846FFF79CFD00BF0837BD4680BD03
:100F40004C20002480B584B000AFF860B96013462F
:100F5000FB71FB68BA685A60FB68FA791A72FB6821
:100F600000225A81FB684FF000021A61FB684FF0C3
:100F70000002DA60FB68143318460DF00BFEFB68C4
:100F8000403318460DF01EFE00BF1037BD4680BD31
:100F900080B582B000AF7860634B1A687B685B688D
:100FA00019461046FFF707FE03469AB27B685A8738
:100FB0005D4B1A687B685B6819461046FFF7DAFDDF
:100FC00003469AB27B685A877B68143318460DF043
:100FD00071FD7B681A8F7B68A3F866207B684033BD
:100FE00018460DF09BFD7B68B3F864207B685A813E
:100FF0007B681B7A002B02D0012B3FD090E07B68EE
:101000005B89B3F5477F04D27B6840F21B325A817B
:1010100009E07B685B8940F68172934203D97B6863
:1010200040F682725A817B685B891846FFF7D2FDD1
:10103000F0EE407A9FED3D7A67EE877A7B68C3EDEC
:10104000037A7B6893ED037ADFED396AC7EE267A7F
:101050007B68C3ED047A7B685B89A3F21B331A4675
:1010600013461B039A1A334BA3FB0213D21A5208DE
:101070001344DB0A9AB27B685A8151E07B685B8932
:10108000052B03D87B6805225A8109E07B685B89C0
:1010900040F69162934203D97B6840F692625A818E
:1010A0007B685B89052B0FD97B685B891846FFF746
:1010B00091FDF0EE407A9FED207A67EE877A9FED02
:1010C0001B7A67EE877A01E0DFED1C7A7B68C3ED5F
:1010D000037A7B685B89052B0BD97B68D3ED037A98
:1010E000DFED126A87EEA67ADFED156AC7EE267A83
:1010F00001E0DFED127A7B68C3ED047A7B685B89DF
:10110000053B1A4613461B039A1A0E4BA3FB021308
:10111000D21A52081344DB0A9AB27B685A8100BF84
:1011200000BF0837BD4680BD4C20002400007A4433
:1011300000002043AF99424A555555400000000039
:101140000000A042AD357F1980B483B000AF0346E4
:10115000FB71FB79002B02D0FB79012B01D101231C
:1011600000E00023DBB218460C37BD465DF8047B77
:101170007047000080B582B000AF00F021FA00F0A7
:101180002DFA41480DF004FF0023FB7172E0FB795A
:1011900040F2771202FB03F242F2086313443B4A27
:1011A00013443B4918460DF042FEFB7940F277129A
:1011B00002FB03F242F208631344344A13443549F4
:1011C00018460DF043FEFB7940F2771202FB03F262
:1011D00042F2086313442D4A13442F4918460DF078
:1011E00069FEFB7940F2771202FB03F242F20863D8
:1011F0001344264A1344294918460DF06AFEFB7928
:1012000040F2771202FB03F242F2086313441F4AD2
:101210001344234918460DF06BFEFB7940F2771218
:1012200002FB03F242F208631344184A13441D49B7
:1012300018460DF07FFEFB7940F2771202FB03F2B5
:1012400042F208631344114A1344174918460DF03B
:1012500080FEFB7940F2771202FB03F242F2086350
:1012600013440A4A1344114918460DF081FEFB79D4
:101270000133FB71FB79032B89D90D480DF03EFD3D
:1012800000BF0837BD4680BDDD1400085020002493
:10129000F11200080F130008AD1300082514000810
:1012A000811400082D13000857130008811300084B
:1012B000F514000880B584B000AF78600B467B80E1
:1012C0007B8842F6F82202FB03F31A46074B5B6861
:1012D000B2FBF3F30133FB607A88FB68796803485B
:1012E00023F008FB00BF1037BD4680BDD854002452
:1012F00080B483B000AF03463960FB711346BB80F6
:10130000002318460C37BD465DF8047B704780B457
:1013100083B000AF03463960FB711346BB800023E6
:1013200018460C37BD465DF8047B704780B582B027
:1013300000AF78600B46FB707B68D3F857017B6881
:10134000B3F863319BB2FA7819461AF0E3FC00BF98
:101350000837BD4680BD80B582B000AF78600B46CF
:10136000FB707B68D3F85B017B68B3F865319BB297
:10137000FA7819461AF0CEFC00BF0837BD4680BD8A
:1013800080B582B000AF78600B46FB707B68D3F805
:101390005F017B68B3F867319BB2FA7819461AF09F
:1013A000B9FC00BF0837BD4680BD000080B586B0DF
:1013B00000AFF8600B467A60FB72FB7A012B06D116
:1013C000FB68D3F822315A687B681A6005E0FB6835
:1013D000D3F822317A6812685A60FB68D3F8223158
:1013E000184623F037FA0346FB75FB7D032B13D811
:1013F00001A252F823F000BF091400080D140008E0
:101400001114000815140008002306E0012304E06D
:10141000022302E0032300E0042318461837BD46E8
:1014200080BD00BF80B586B000AFF860B9603B609A
:101430001346FB80FB68D3F82201FA883B68B96841
:1014400023F058FA0346FB75FB7D032B12D801A24B
:1014500052F823F065140008691400086D140008A0
:1014600071140008002306E0012304E0022302E0D7
:10147000032300E0042318461837BD4680BD00BF93
:1014800080B586B000AFF860B9603B601346FB8062
:10149000FB68D3F82201FA883B68B96823F0C0FAE8
:1014A0000346FB75FB7D032B12D801A252F823F0F3
:1014B000C1140008C5140008C9140008CD140008A0
:1014C000002306E0012304E0022302E0032300E0FE
:1014D000042318461837BD4680BD00BF80B500AF55
:1014E000034809F041FD02460B461046194680BDEF
:1014F000384C002480B500AF034809F035FD0246A2
:101500000B461046194680BD384C002480B584B087
:1015100000AF0346FB80FB88B3F5806F10D0B3F5B6
:10152000806F19DCB3F5007F0ED0B3F5007F13DCBC
:10153000042B0DD0402B0FD11C480DF068FC0CE0A3
:101540001B480DF064FC08E01A480DF060FC04E054
:1015500019480DF05CFC00E000BF184A42F2D0339D
:1015600013441B88FA889A421BD0144BB3F85830A6
:10157000FA889A4215D1114B012283F840200023AA
:10158000FB7302E0FB7B0133FB73FB7B002BF9D089
:101590000023BB7302E0BB7B0133BB73BB7B002B1F
:1015A000F9D000BF1037BD4680BD00BF58460024AB
:1015B000CF47002446490024BD4A0024502000247F
:1015C00080B500AF03480CF0A9FF03480CF0B6FF4C
:1015D00000BF80BD611600084517000880B500AF48
:1015E000124810F067F91249124810F073F91248C6
:1015F00010F086F91149124810F092F9114810F0D4
:10160000A5F911480EF0E0FA104810F0AFF91048B3
:1016100011F09AFA0F4811F0A7FA0F480EF0BAF835
:101620000E480EF0C7F800BF80BD00BF9917000834
:10163000191E000821190008B1200008613A0008AD
:10164000C1260008B144000827480008494800089E
:101650000147000811480008ED450008D54400087E
:1016600080B582B000AF78607B681B78072B63D8A9
:1016700001A252F823F000BF99160008AD16000829
:10168000C1160008D5160008E9160008FD16000866
:1016900011170008251700087B6893F824309BB2C7
:1016A000194642F2117010F02FFD46E07B6893F866
:1016B00024309BB2194642F2127010F025FD3CE036
:1016C0007B6893F824309BB2194642F2137010F0F5
:1016D0001BFD32E07B6893F824309BB2194642F23E
:1016E000147010F011FD28E07B6893F824309BB251
:1016F000194642F2157010F007FD1EE07B6893F862
:1017000024309BB2194642F2167010F0FDFC14E032
:101710007B6893F824309BB2194642F2177010F0A0
:10172000F3FC0AE07B6893F824309BB2194642F23E
:10173000187010F0E9FC00E000BF00BF0837BD469C
:1017400080BD00BF80B584B000AF0346FB80FF239F
:10175000FB7317E0FB7B0F4A9B011A4442F25023B4
:1017600013441B88FA889A4209D1FB7B89339B0179
:10177000084A1344043318460CF0F0FE06E0FB7BE5
:101780000133FB73FB7B072BE4D900BF00BF10378D
:10179000BD4680BD5020002480B584B000AF034614
:1017A0003960FB800123FB73FA885B4B1344072BE2
:1017B00000F2AC8001A252F823F000BFDD17000850
:1017C00003180008291800084F18000875180008A9
:1017D0009B180008C1180008E71800084F4A42F299
:1017E0004C2313441A684D4942F250230B441B8882
:1017F000194610461AF076FA03461A463B681A70E4
:1018000085E0464A42F28C2313441A68434942F267
:1018100090230B441B88194610461AF063FA0346BE
:101820001A463B681A7072E03C4A42F2CC231344D9
:101830001A683A4942F2D0230B441B8819461046D5
:101840001AF050FA03461A463B681A705FE0334AB2
:1018500042F20C3313441A68304942F210330B44FD
:101860001B88194610461AF03DFA03461A463B6893
:101870001A704CE0294A42F24C3313441A68274943
:1018800042F250330B441B88194610461AF02AFACC
:1018900003461A463B681A7039E0204A42F28C33FC
:1018A00013441A681D4942F290330B441B881946B1
:1018B00010461AF017FA03461A463B681A7026E0DB
:1018C000164A42F2CC3313441A68144942F2D03318
:1018D0000B441B88194610461AF004FA03461A46B0
:1018E0003B681A7013E00D4A42F20C4313441A6825
:1018F0000A4942F210430B441B88194610461AF05D
:10190000F1F903461A463B681A7000E000BFFB7B02
:1019100018461037BD4680BDEFD8FFFF5020002489
:1019200080B584B000AF03460A46FB711346BB7115
:101930000123FB73FB79013B3D2B00F24F8201A297
:1019400052F823F03D1A00085F1A0008811A0008B7
:10195000A31A0008C51A0008E71A0008DD1D0008D0
:10196000DD1D0008DD1D0008DD1D0008DD1D00086F
:10197000DD1D0008DD1D0008DD1D0008DD1D00085F
:10198000DD1D0008091B0008431B00087D1B000823
:10199000B71B0008DD1D0008DD1D0008DD1D000867
:1019A000DD1D0008DD1D0008DD1D0008DD1D00082F
:1019B000DD1D0008F11B0008DD1D0008DD1D00080D
:1019C000DD1D00088F1C0008DD1D0008DD1D00085E
:1019D000F71C0008DD1D0008DD1D0008251D00089E
:1019E000DD1D0008DD1D0008DD1D0008DD1D0008EF
:1019F000DD1D0008DD1D0008DD1D0008DD1D0008DF
:101A0000DD1D0008DD1D0008DD1D0008611D00084A
:101A1000DD1D0008DD1D0008DD1D0008DD1D0008BE
:101A2000DD1D0008DD1D0008DD1D0008DD1D0008AE
:101A3000DD1D0008991D0008AD1D0008BB79002BB5
:101A400014BF01230023DBB21946BE4A41F6F473EA
:101A500013440A461A70BC480CF0CEFDD4E1BB79A1
:101A6000002B14BF01230023DBB21946B54A42F212
:101A7000580313440A461A70B4480CF0BDFDC3E184
:101A8000BB79002B14BF01230023DBB21946AD4AFA
:101A900042F2BC0313440A461A70AD480CF0ACFD88
:101AA000B2E1BB79002B14BF01230023DBB219463E
:101AB000A44A42F2201313440A461A70A5480CF0B7
:101AC0009BFDA1E1BB79002B14BF01230023DBB2F6
:101AD00019469C4A42F2841313440A461A709E48DF
:101AE0000CF08AFD90E1BB79002B14BF0123002389
:101AF000DBB21946934A42F2E81313440A461A70BD
:101B000096480CF079FD7FE1BB79002B14BF0123CF
:101B10000023DBB219468B4A41F6556313440A464B
:101B20001A70884A41F6556313441B7819463A20C7
:101B300002F04EFF0346002B40F053810023FB735D
:101B40004FE1BB79002B14BF01230023DBB2194600
:101B50007C4A41F6816313440A461A70794A41F679
:101B6000816313441B7819463B2002F031FF034682
:101B7000002B40F038810023FB7334E1BB79002B4C
:101B800014BF01230023DBB219466E4A41F6AD6350
:101B900013440A461A706B4A41F6AD6313441B782E
:101BA00019463C2002F014FF0346002B40F01D8133
:101BB0000023FB7319E1BB79002B14BF0123002321
:101BC000DBB219465F4A41F6D96313440A461A70DC
:101BD0005C4A41F6D96313441B7819463D2002F054
:101BE000F7FE0346002B40F002810023FB73FEE06A
:101BF000BB79002B00F0FD800023BB7341E0BB7B71
:101C000003F10D02BB7B4F490B4493F86A30194630
:101C1000104602F0DDFEBB7B032B2FD8BB7B03F10C
:101C20001302BB7B47490B4493F8703019461046AA
:101C300002F0CEFEBB7B03F11702BB7B41490B4494
:101C400093F874301946104602F0C2FEBB7B03F1D4
:101C50001B02BB7B3B490B4493F878301946104676
:101C600002F0B6FEBB7B03F11F02BB7B35490B4480
:101C700093F87C301946104602F0AAFEBB7B013374
:101C8000BB73BB7B052BBAD91E23FB71B1E00FF0F0
:101C9000C9FD0346002B40F0AE80BB79002B00F05D
:101CA000AA80284BB3F88E3619462F2002F090FEFA
:101CB0000346002B01D10023FB7310F0BDFC03464B
:101CC0001946302002F084FE0346002B01D1002388
:101CD000FB73BB79022B00F28E801A4B93F88A3685
:101CE0001946312002F074FE0346002B40F0838039
:101CF0000023FB737FE0BB79002B14BF012300237B
:101D0000DBB21A460F4B83F848290E4B93F848393B
:101D10001946322002F05CFE0346002B6DD10023F1
:101D2000FB736AE0BB79002B69D0064B9B7A19469E
:101D3000372002F04DFE0346002B60D10023FB73D9
:101D40005DE000BF502000243C400024A04000245F
:101D50000441002468410024CC4100243042002486
:101D6000BB79002B14BF01230023DBB21946294A9B
:101D700042F2444313440A461A70264A42F244434C
:101D800013441B7819468A2002F022FE0346002BDA
:101D900037D10023FB7334E0BB79002B14BF012340
:101DA0000023DBB21A461B4B5A722DE0BB79002B85
:101DB00002D00BF0CFFF01E00BF0D8FFBB79002B76
:101DC00014BF01230023DBB21946902002F000FE6D
:101DD0000346002B17D10023FB7314E00023FB7391
:101DE00012E000BF10E000BF0EE000BF0CE000BF3B
:101DF0000AE000BF08E000BF06E000BF04E000BF4B
:101E000002E000BF00E000BFFB7B18461037BD4674
:101E100080BD00BF5020002480B584B000AF0346D1
:101E20003960FB710123FB73FB79013B3D2B00F211
:101E3000368101A252F823F0311F0008571F000815
:101E40007D1F0008A11F0008C71F0008ED1F000824
:101E50009F2000089F2000089F2000089F20000866
:101E60009F2000089F2000089F2000089F20000856
:101E70009F2000089F20000813200008232000084E
:101E800033200008432000089F2000089F200008FE
:101E90009F2000089F2000089F2000089F20000826
:101EA0009F2000089F200008532000089F20000862
:101EB0009F2000089F2000085B2000089F2000084A
:101EC0009F200008632000089F2000089F20000832
:101ED0006F2000089F2000089F2000089F20000816
:101EE0009F2000089F2000089F2000089F200008D6
:101EF0009F2000089F2000089F2000089F200008C6
:101F0000772000089F2000089F2000089F200008DD
:101F10009F2000089F2000089F2000089F200008A5
:101F20009F2000089F2000088720000891200008BB
:101F30005E4A41F6F87313441A685C4941F6FC7333
:101F40000B441B881946104619F0CCFE03461A466E
:101F50003B681A70A4E0554A42F25C0313441A68C5
:101F6000524942F260030B441B881946104619F08F
:101F7000B9FE03461A463B681A7091E04B4B03F5D5
:101F800003531A68494942F2C4030B441B8819469B
:101F9000104619F0A7FE03461A463B681A707FE008
:101FA000424A42F2241313441A68404942F2281369
:101FB0000B441B881946104619F094FE03461A4636
:101FC0003B681A706CE0394A42F2881313441A686D
:101FD000364942F28C130B441B881946104619F0FF
:101FE00081FE03461A463B681A7059E02F4A42F2B6
:101FF000EC1313441A682D4942F2F0130B441B886A
:102000001946104619F06EFE03461A463B681A70D0
:1020100046E0264A41F6556313441A783B681A7025
:102020003EE0224A41F6816313441A783B681A70F5
:1020300036E01E4A41F6AD6313441A783B681A70C5
:102040002EE01A4A41F6D96313441A783B681A7095
:1020500026E03B6800221A7022E03B6800221A70DA
:102060001EE0124B93F848293B681A7018E03B6851
:1020700000221A7014E00D4A42F2444313441A78C5
:102080003B681A700CE0094B5A7A3B681A7007E0FB
:102090000BF090FE03461A463B681A7000E000BF42
:1020A000FB7B18461037BD4680BD00BF5020002482
:1020B00080B584B000AF03463960FB800123FB7319
:1020C000FA88E54B1344B12B00F2ED8201A252F8DD
:1020D00023F000BF9D230008AD230008D123000892
:1020E000A7260008A7260008ED230008FD23000806
:1020F00021240008A7260008A7260008A726000814
:10210000A7260008A7260008A7260008A72600087B
:10211000A7260008A7260008A7260008A72600086B
:10212000A72600083D2400084B2400086524000869
:1021300073240008812400088D240008A7260008C5
:10214000A7260008A7260008A7260008A72600083B
:10215000A7260008A7260008A7260008A72600082B
:10216000A7260008A7260008A7260008A72600081B
:10217000A7260008A7260008A7260008A72600080B
:10218000A7260008A7260008A7260008A7260008FB
:10219000A7260008A7260008A72600089B240008F9
:1021A000A7240008A7260008A7260008A7260008DD
:1021B000A7260008A7260008A7260008A7260008CB
:1021C000A7260008B5240008A7260008A7260008AF
:1021D000A7260008A7260008C7240008A72600088D
:1021E000A7260008A7260008A7260008D92400086B
:1021F000F1240008092500081D25000835250008E0
:102200004925000861250008A7260008A726000820
:10221000A7260008A7260008A7260008A72600086A
:10222000A7260008A7260008A7260008A72600085A
:10223000A7260008A7260008A7260008A72600084A
:10224000A7260008A7260008A7260008A72600083A
:10225000A7260008A7260008A7260008A72600082A
:10226000A7260008752500087F250008A726000876
:10227000A7260008A7260008A7260008A72600080A
:10228000A7260008A7260008A72600088925000819
:10229000A5250008A7260008A7260008A7260008ED
:1022A000B9250008D5250008A7260008A72600089C
:1022B000A7260008A7260008A7260008A7260008CA
:1022C000A7260008A7260008A7260008A7260008BA
:1022D000A7260008A7260008A7260008A7260008AA
:1022E000A7260008A7260008A7260008A72600089A
:1022F000A7260008A7260008A7260008A72600088A
:10230000A7260008A7260008A7260008A726000879
:10231000A7260008A7260008A7260008A726000869
:10232000A7260008A7260008A7260008E925000818
:10233000FD2500080726000811260008F3250008DF
:102340001B26000825260008A7260008A726000847
:10235000A72600082F260008572600086126000837
:102360006B26000839260008432600084D26000881
:10237000752600087F260008A7260008A726000863
:10238000A7260008A7260008A7260008A7260008F9
:1023900089260008932600089D2600082F4A41F64A
:1023A000127313441A883B681A807FE12B4A41F666
:1023B00018731344D3ED007A9FED297A67EE877A7C
:1023C000FCEEE77A17EE903A9AB23B681A806DE11C
:1023D000224A41F614731344D3ED007AFCEEE77AF7
:1023E00017EE903A9AB23B681A805FE11B4A41F6B9
:1023F000827313441A883B681A8057E1174A41F6E2
:1024000088731344D3ED007A9FED157A67EE877ACF
:10241000FCEEE77A17EE903A9AB23B681A8045E1F3
:102420000E4A41F684731344D3ED007AFCEEE77A4A
:1024300017EE903A9AB23B681A8037E1074B93F84F
:102440008B309AB23B681A8030E1044B93F88C30A1
:102450009AB23B681A8029E1CF8AFFFF50200024FE
:102460000000C842944B93F88D309AB23B681A80B2
:102470001CE1914B93F88E309AB23B681A8015E1BB
:102480008D4BB3F870233B681A800FE18A4B93F9A8
:1024900085309AB23B681A8008E1874BB3F86E2604
:1024A0003B681A8002E1844B93F985339AB23B680A
:1024B0001A80FBE0804A42F2782313441B689AB2E8
:1024C0003B681A80F2E07C4A42F2B82313441B684E
:1024D0009AB23B681A80E9E078480CF045FA764AEF
:1024E00042F2B84313441B789AB23B681A80DDE08D
:1024F00072480CF0D5F9704A42F2A04313441B68AD
:102500009AB23B681A80D1E06B4A42F2A04313446E
:102510001B681B149AB23B681A80C7E067480CF02E
:102520008FFA654A42F2A44313441B689AB23B688F
:102530001A80BBE0604A42F2A44313441B681B0CA0
:102540009AB23B681A80B1E05C480CF096FA5A4A9D
:1025500042F2A84313441B689AB23B681A80A5E074
:10256000554A42F2A84313441B681B0C9AB23B68BD
:102570001A809BE03B684FF480721A8096E03B68BB
:102580004FF480721A8091E04B4A42F21453134484
:10259000D3ED007AFCEEE77A17EE903A9AB23B68F8
:1025A0001A8083E0444A42F238531344B3F90030AE
:1025B0009AB23B681A8079E03F4A42F2545313447E
:1025C000D3ED007AFCEEE77A17EE903A9AB23B68C8
:1025D0001A806BE0384A42F278531344B3F9003062
:1025E0009AB23B681A8061E0334B5A8A3B681A8082
:1025F0005CE0314B9A8A3B681A8057E02E4B9A89EF
:102600003B681A8052E02C4BDA893B681A804DE017
:10261000294B1A8A3B681A8048E0274BDA8A3B68C4
:102620001A8043E0244B1A8B3B681A803EE0224B11
:102630001A8C3B681A8039E01F4B9A8C3B681A80D1
:1026400034E01D4BDA8C3B681A802FE01A4B1A8D50
:102650003B681A802AE0184B9A8B3B681A8025E069
:10266000154BDA8B3B681A8020E0134B5A8C3B6881
:102670001A801BE0104B5A8D3B681A8016E00E4BF7
:102680009A8D3B681A8011E00B4B1A8E3B681A80BA
:102690000CE0094B5A8E3B681A8007E0064B9A8E75
:1026A0003B681A8002E00023FB7300BFFB7B1846E7
:1026B0001037BD4680BD00BF502000249444002444
:1026C00080B5ADF5147D00AF0246BB1D1A803B1DE1
:1026D0000A461A80012387F84F32BB1D1A88024B25
:1026E000134440F2391201E0BF63FFFF934201F24D
:1026F000A68101A151F823F0E12B00083F3A000820
:102700003F3A00082B2C00083F3A00083F3A0008E7
:102710003F3A00083F3A00083F3A0008752C00088D
:10272000A52C00083F3A00083F3A0008EF2C0008AB
:102730003F3A00083F3A00083F3A00083F3A000895
:102740003F3A0008392D00083F3A00083F3A000898
:102750003F3A00083F3A00083F3A00083F3A000875
:102760003F3A00083F3A00083F3A00083F3A000865
:102770003F3A00083F3A00083F3A00083F3A000855
:102780003F3A00083F3A00083F3A00083F3A000845
:102790003F3A00083F3A00083F3A00083F3A000835
:1027A0003F3A00083F3A00083F3A00083F3A000825
:1027B0003F3A00083F3A00083F3A00083F3A000815
:1027C0003F3A00083F3A00083F3A00083F3A000805
:1027D0003F3A00083F3A00083F3A00083F3A0008F5
:1027E0003F3A00083F3A00083F3A00083F3A0008E5
:1027F0003F3A00083F3A00083F3A00083F3A0008D5
:102800003F3A00083F3A00083F3A00083F3A0008C4
:102810003F3A00083F3A00083F3A00083F3A0008B4
:102820003F3A00083F3A00083F3A00083F3A0008A4
:102830003F3A00083F3A00083F3A00083F3A000894
:102840003F3A00083F3A00083F3A00083F3A000884
:102850003F3A00083F3A00083F3A00083F3A000874
:102860003F3A00083F3A00083F3A00083F3A000864
:102870003F3A00083F3A00083F3A00083F3A000854
:102880003F3A00083F3A00083F3A00083F3A000844
:102890003F3A00083F3A00083F3A00083F3A000834
:1028A0003F3A00083F3A00083F3A00083F3A000824
:1028B0003F3A00083F3A00083F3A00083F3A000814
:1028C0003F3A00083F3A00083F3A00083F3A000804
:1028D0003F3A00083F3A00083F3A00083F3A0008F4
:1028E0003F3A00083F3A00083F3A00083F3A0008E4
:1028F0003F3A00083F3A00083F3A00083F3A0008D4
:102900003F3A00083F3A00083F3A00083F3A0008C3
:102910003F3A00083F3A00083F3A0008692D000896
:10292000A72D00083F3A00083F3A00083F3A000848
:102930003F3A00083F3A00083F3A0008E12D0008FE
:102940005D2E00081F2E00083F3A00083F3A00089D
:10295000832E0008FF2E0008C12E00083F3A000811
:102960003F3A0008292F0008672F00083F3A000867
:102970003F3A00083F3A00088D2F0008CB2F00088F
:102980003F3A00083F3A00083F3A00083F3A000843
:102990003F3A00083F3A00083F3A00083F3A000833
:1029A000EF2F00081D3000084B3000087930000878
:1029B000A7300008D5300008033100083131000885
:1029C0005F3100088D310008BB310008E931000893
:1029D0001732000849320008733200089D3200089F
:1029E000C7320008F13200081B33000845330008E5
:1029F0006F330008993300083F3A00083F3A000857
:102A00003F3A00083F3A00083F3A00083F3A0008C2
:102A10003F3A00083F3A0008C3330008DB330008A0
:102A20003F3A00083F3A00083F3A00083F3A0008A2
:102A30003F3A00083F3A00083F3A00083F3A000892
:102A40003F3A00083F3A00083F3A00083F3A000882
:102A50003F3A00083F3A00083F3A00083F3A000872
:102A60003F3A00083F3A0008033400082D340008BC
:102A70005734000881340008AB340008C334000820
:102A800025350008EB3400083F3A00083F3A0008BB
:102A90003F3A00083F3A00083F3A00083F3A000832
:102AA0003F3A00083F3A00083F3A00083F3A000822
:102AB0003F3A00083F3A00085F350008BD3500087E
:102AC00099350008E13500083F3A00083F3A000810
:102AD0003F3A00083F3A00083F3A00083F3A0008F2
:102AE000FF350008333600086F360008A3360008AB
:102AF0003F3A00083F3A00083F3A00083F3A0008D2
:102B00003F3A00083F3A0008D7360008FB36000875
:102B10003F3A00083F3A00083F3A00082F370008C4
:102B20003F3A00083F3A00083F3A00083F3A0008A1
:102B30003F3A00083F3A00083F3A00083F3A000891
:102B40003F3A00083F3A00083F3A00083F3A000881
:102B50003F3A00083F3A0008833700083F3A000830
:102B60003F3A00083F3A00083F3A00083F3A000861
:102B70003F3A00083F3A00083F3A00083F3A000851
:102B8000DD3700082138000867380008A33800083E
:102B90003F3A00083F3A00083F3A00083F3A000831
:102BA0003F3A00083F3A0008DF3800080D390008B6
:102BB0003B390008693900083F3A00083F3A0008ED
:102BC0003F3A00083F3A00083F3A00083F3A000801
:102BD0008F390008BD390008EB390008193A0008A0
:102BE0003B1D1B88002B03D03B1D1B88012B17D1DD
:102BF0003B1D1B88D9B2CB4A42F2482313440A46F4
:102C00001A70C84A42F24523134401221A703B1D30
:102C10001B881946432001F0DBFE00BF00F014BF03
:102C2000002387F84F3200F00FBF3B1D1B88012B9C
:102C300003D03B1D1B88022B17D13B1D1B88D9B22B
:102C4000B84A42F24B2313440A461A70B54A42F27C
:102C50004523134401221A703B1D1B881946462048
:102C600001F0B6FE00BF00F0EFBE002387F84F3240
:102C700000F0EABE3B1D1B88002B0ED03B1D1A88BE
:102C8000A84942F27C230B441A603B1D1B8819465D
:102C9000482001F09DFE00F0D7BE002387F84F3298
:102CA00000F0D2BE3B1D1B88002B03D03B1D1B88B0
:102CB000012B17D13B1D1B88D9B29A4A42F28823B7
:102CC00013440A461A70974A42F28523134401229C
:102CD0001A703B1D1B881946492001F079FE00BF80
:102CE00000F0B2BE002387F84F3200F0ADBE3B1DAE
:102CF0001B88012B03D03B1D1B88022B17D13B1DCA
:102D00001B88D9B2874A42F28B2313440A461A70B1
:102D1000844A42F28523134401221A703B1D1B880A
:102D200019464C2001F054FE00BF00F08DBE002378
:102D300087F84F3200F088BE3B1D1B88002B0ED059
:102D40003B1D1A88774942F2BC230B441A603B1D95
:102D50001B8819464E2001F03BFE00F075BE002393
:102D600087F84F3200F070BE3B1D1B88002B03D04C
:102D70003B1D1B88012B11D13B1D1B88D9B2694A11
:102D800041F6107313440A461A703B1D1B881946FE
:102D9000012001F01DFE00BF00F056BE002387F8A1
:102DA0004F3200F051BE3B1D1B88002B03D03B1D52
:102DB0001B88012B0FD13B1D1B88DAB2594B03F541
:102DC000FC531A703B1D1B881946022001F000FEBF
:102DD00000BF00F039BE002387F84F3200F034BE48
:102DE0003B1D1B88002B03D03B1D1B88012B11D1E1
:102DF0003B1D1B88D9B24B4A41F6576313440A4620
:102E00001A703B1D1B881946052001F0E1FD00BF2B
:102E100000F01ABE002387F84F3200F015BE3B1DAC
:102E20001B88012B03D03B1D1B88022B11D13B1D9E
:102E30001B88D9B23B4A41F6566313440A461A70BE
:102E40003B1D1B8819463F2001F0C2FD00BF00F06A
:102E5000FBBD002387F84F3200F0F6BD3B1D1B88F9
:102E6000B3F5805F08D22F4A41F65A6313443A1DE6
:102E700012881A8000F0E8BD002387F84F3200F076
:102E8000E3BD3B1D1B88002B03D03B1D1B88012B82
:102E900011D13B1D1B88D9B2224A41F683631344EA
:102EA0000A461A703B1D1B881946072001F090FD49
:102EB00000BF00F0C9BD002387F84F3200F0C4BD49
:102EC0003B1D1B88012B03D03B1D1B88022B11D1FE
:102ED0003B1D1B88D9B2134A41F6826313440A464C
:102EE0001A703B1D1B881946402001F071FD00BF80
:102EF00000F0AABD002387F84F3200F0A5BD3B1DAE
:102F00001B88B3F5805F08D2064A41F686631344F6
:102F10003A1D12881A8000F097BD002387F84F32BF
:102F200000F092BD502000243B1D1B88002B03D0D5
:102F30003B1D1B88012B11D13B1D1B88D9B2C14AF7
:102F400041F6AF6313440A461A703B1D1B881946AD
:102F5000092001F03DFD00BF00F076BD002387F899
:102F60004F3200F071BD3B1D1B88B3F5805F08D266
:102F7000B44A41F6B46313443A1D12881A8000F033
:102F800063BD002387F84F3200F05EBD3B1D1B88F8
:102F9000002B03D03B1D1B88012B11D13B1D1B882F
:102FA000D9B2A84A41F6DB6313440A461A703B1DA6
:102FB0001B8819460B2001F00BFD00BF00F044BD3B
:102FC000002387F84F3200F03FBD3B1D1B88B3F54F
:102FD000805F07D29B4B03F5F7533A1D12881A8086
:102FE00000F032BD002387F84F3200F02DBD3B1DAD
:102FF0001B88FF2B0DD83B1D1B88DAB2914B83F841
:103000006A203B1D1B8819460D2001F0E1FC00F0F1
:103010001BBD002387F84F3200F016BD3B1D1B88F7
:10302000FF2B0DD83B1D1B88DAB2864B83F86B2033
:103030003B1D1B8819460E2001F0CAFC00F004BDA0
:10304000002387F84F3200F0FFBC3B1D1B88FF2B8D
:103050000DD83B1D1B88DAB27A4B83F86C203B1DE0
:103060001B8819460F2001F0B3FC00F0EDBC0023D3
:1030700087F84F3200F0E8BC3B1D1B88FF2B0DD8B2
:103080003B1D1B88DAB26F4B83F86D203B1D1B88FC
:103090001946102001F09CFC00F0D6BC002387F8F4
:1030A0004F3200F0D1BC3B1D1B88FF2B0DD83B1DC0
:1030B0001B88DAB2634B83F86E203B1D1B881946D0
:1030C000112001F085FC00F0BFBC002387F84F32CF
:1030D00000F0BABC3B1D1B88FF2B0DD83B1D1B8885
:1030E000DAB2584B83F86F203B1D1B88194612201B
:1030F00001F06EFC00F0A8BC002387F84F3200F00E
:10310000A3BC3B1D1B88FF2B0DD83B1D1B88DAB2CF
:103110004C4B83F870203B1D1B881946132001F08F
:1031200057FC00F091BC002387F84F3200F08CBCB4
:103130003B1D1B88FF2B0DD83B1D1B88DAB2414B72
:1031400083F871203B1D1B881946142001F040FCB8
:1031500000F07ABC002387F84F3200F075BC3B1DAD
:103160001B88FF2B0DD83B1D1B88DAB2354B83F82B
:1031700072203B1D1B881946152001F029FC00F028
:1031800063BC002387F84F3200F05EBC3B1D1B88F8
:10319000FF2B0DD83B1D1B88DAB22A4B83F8732016
:1031A0003B1D1B881946162001F012FC00F04CBC98
:1031B000002387F84F3200F047BC3B1D1B88FF2BD4
:1031C0000DD83B1D1B88DAB21E4B83F874203B1DC3
:1031D0001B881946172001F0FBFB00F035BC0023CB
:1031E00087F84F3200F030BC3B1D1B88FF2B0DD8F9
:1031F0003B1D1B88DAB2134B83F875203B1D1B88DF
:103200001946182001F0E4FB00F01EBC002387F8EB
:103210004F3200F019BC3B1D1B88FF2B0DD83B1D06
:103220001B88DAB2074B83F876203B1D1B881946B2
:10323000192001F0CDFB00F007BC002387F84F32C6
:1032400000F002BC502000243B1D1B88FF2B0CD833
:103250003B1D1B88DAB2B24B83F877203B1D1B88DD
:1032600019461A2001F0B4FBEEE3002387F84F3231
:10327000EAE33B1D1B88FF2B0CD83B1D1B88DAB2F1
:10328000A74B83F878203B1D1B8819461B2001F0B3
:103290009FFBD9E3002387F84F32D5E33B1D1B8802
:1032A000FF2B0CD83B1D1B88DAB29D4B83F879208D
:1032B0003B1D1B8819461C2001F08AFBC4E3002338
:1032C00087F84F32C0E33B1D1B88FF2B0CD83B1DFA
:1032D0001B88DAB2924B83F87A203B1D1B88194673
:1032E0001D2001F075FBAFE3002387F84F32ABE3FD
:1032F0003B1D1B88FF2B0CD83B1D1B88DAB2884B6B
:1033000083F87B203B1D1B8819461E2001F060FBC3
:103310009AE3002387F84F3296E33B1D1B88FF2B6F
:103320000CD83B1D1B88DAB27D4B83F87C203B1DFB
:103330001B8819461F2001F04BFB85E3002387F80B
:103340004F3281E33B1D1B88FF2B0CD83B1D1B8894
:10335000DAB2734B83F87D203B1D1B881946202071
:1033600001F036FB70E3002387F84F326CE33B1D1E
:103370001B88FF2B0CD83B1D1B88DAB2684B83F8E7
:103380007E203B1D1B881946212001F021FB5BE3B9
:10339000002387F84F3257E33B1D1B88FF2B0CD8C7
:1033A0003B1D1B88DAB25E4B83F87F203B1D1B88D8
:1033B0001946222001F00CFB46E3002387F84F3228
:1033C00042E3574A3B1D1B88A2F86E333B1D1B8806
:1033D0001946232001F0FCFA36E33B1D1B88FF2B26
:1033E0000BD84F4A3B1D1B88A2F86C333B1D1B8832
:1033F0001946242001F0ECFA26E3002387F84F3227
:1034000022E33B1D1B88FF2B0CD83B1D1B88DAB227
:10341000434B83F88B233B1D1B881946272001F063
:10342000D7FA11E3002387F84F320DE33B1D1B88C9
:10343000FF2B0CD83B1D1B88DAB2394B83F88C2349
:103440003B1D1B881946282001F0C2FAFCE200232C
:1034500087F84F32F8E23B1D1B88FF2B0CD83B1D31
:103460001B88DAB22E4B83F88D233B1D1B8819462F
:10347000292001F0ADFAE7E2002387F84F32E3E2BA
:103480003B1D1B88FF2B0CD83B1D1B88DAB2244B3D
:1034900083F88E233B1D1B8819462A2001F098FAD9
:1034A000D2E2002387F84F32CEE21D4A3B1D1B8833
:1034B000A2F870363B1D1B8819462B2001F088FAB4
:1034C000C2E23B1D1B88FF2B0BD8154A3B1D1B88F6
:1034D000A2F86C363B1D1B8819462C2001F078FAA7
:1034E000B2E2002387F84F32AEE23B1D1B88002B6F
:1034F00003D03B1D1B88012B0DD13B1D1B88DAB26D
:10350000074B83F886233B1D1B8819462D2001F0AD
:103510005FFA00BF98E2002387F84F3294E200BFC1
:10352000502000243B1D1B88002B14D03B1D1B8802
:103530004EF6602293420ED83B1D1A88B64941F6DA
:1035400038130B441A603B1D1B8819462E2001F0CE
:103550003FFA00BF78E2002387F84F3274E20EF0A2
:1035600061F90346002B40F06E8207F108033A1D13
:103570001288DA8007F1080318460FF01FF8034697
:10358000012B05D1A44A3B1D1B88A2F88E365AE2B6
:10359000002387F84F3256E20FF04EF8C7F8480282
:1035A000D7F848329AB23B1D1B881B041343C7F857
:1035B0004832D7F848020FF02FF845E20FF03CF8F8
:1035C000C7F84402D7F84422944B13403A1D12889E
:1035D0001343C7F84432D7F844020FF01DF833E222
:1035E0003B1D1B88022B06D83B1D1B88DAB28A4B79
:1035F00083F88A2628E2002387F84F3224E23B1D15
:103600001B88002B11D03B1D1B88F72B0DD83B1DB1
:103610001B88DAB2804B83F871293B1D1B88194641
:10362000332001F0D5F900BF0EE2002387F84F32B6
:103630000AE23B1D1B88182B15D83B1D1B88764AB8
:1036400092F871291344F62B0DD83B1D1B88DAB272
:10365000714B83F872293B1D1B881946342001F0F9
:10366000B7F900BFF0E1002387F84F32ECE13B1DD2
:103670001B88002B11D03B1D1B884FF47A7202FB74
:1036800003F31A46644BC3F86029634BD3F86039DF
:103690001946352001F09CF9D6E1002387F84F3216
:1036A000D2E13B1D1B88002B11D03B1D1B884FF422
:1036B0007A7202FB03F31A46574BC3F88829564B1C
:1036C000D3F888391946362001F082F9BCE100238D
:1036D00087F84F32B8E13B1D1B88002B09D03B1DFA
:1036E0001B88F72B05D83B1D1B88DAB24A4B9A7210
:1036F000AAE1002387F84F32A6E13B1D1B88002B6F
:1037000011D03B1D1B884FF47A7202FB03F31A465B
:10371000414BC3F80829404BD3F8083919463E20DD
:1037200001F056F990E1002387F84F328CE13B1D00
:103730001B88002B21D03B1D1B884FF47A7202FBA3
:1037400003F31946344A41F66813134419603B1DCC
:103750001B884FF47A7202FB03F319462E4A41F696
:103760008813134419602C4A41F6681313441B68EC
:103770001946382001F02CF966E1002387F84F3212
:1037800062E13B1D1B88002B03D03B1D1B88012BD6
:1037900020D13B1D1B88DAB21F4B1A723B1D1B88C0
:1037A000012B01D1012200E002221B4B83F8882665
:1037B0003B1D1B88002B14BF01230023DBB21846DE
:1037C0000CF046FB3B1D1B881946392001F000F91F
:1037D00000BF39E1002387F84F3235E13B1D1B88DC
:1037E000032B15D83B1D1B88D9B20B4A42F2484324
:1037F00013440A461A70084A42F29C4313440122B9
:103800001A703B1D1B8819468B2001F0E1F81BE163
:10381000002387F84F3217E1502000240000FFFFFB
:103820003B1D1B88002B03D03B1D1B88012B16D191
:103830003B1D1B88D9B2884A42F2744313440A469E
:103840001A70854A42F29C43134401221A703B1DB0
:103850001B8819468C2001F0BBF800BFF4E0002360
:1038600087F84F32F0E03B1D1B88022B15D83B1D1B
:103870001B88D9B2784A42F28E4313440A461A7022
:10388000754A42F29C43134401221A703B1D1B8867
:1038900019468D2001F09CF8D6E0002387F84F32BE
:1038A000D2E03B1D1B88022B15D83B1D1B88D9B2CB
:1038B000694A42F29A4313440A461A70664A42F22F
:1038C0009C43134401221A703B1D1B8819468E200D
:1038D00001F07EF8B8E0002387F84F32B4E03B1DDA
:1038E0001B8807EE903AB8EE677ADFED5C6AC7EEA8
:1038F000267A594A42F218531344C3ED007A3B1D0D
:103900001B881946822001F063F89DE03B1D1B884F
:1039100007EE903AB8EE677ADFED506AC7EE267A86
:103920004D4A42F21C531344C3ED007A3B1D1B88E1
:103930001946832001F04CF886E03B1D1B8807EEFA
:10394000903AB8EE677ADFED456AC7EE267A424ACA
:1039500042F220531344C3ED007A3B1D1B881946E5
:10396000842001F035F86FE03B1D1B8807EE903A8C
:10397000F8EE677A384A42F23C531344C3ED007ABA
:103980003B1D1B881946852001F022F85CE03B1D99
:103990001B8807EE903AB8EE677ADFED306AC7EE23
:1039A000267A2D4A42F258531344C3ED007A3B1D48
:1039B0001B881946862001F00BF845E03B1D1B884B
:1039C00007EE903AB8EE677ADFED246AC7EE267A02
:1039D000214A42F25C531344C3ED007A3B1D1B881D
:1039E0001946872000F0F4FF2EE03B1D1B8807EEF0
:1039F000903AB8EE677ADFED196AC7EE267A164A72
:103A000042F260531344C3ED007A3B1D1B881946F4
:103A1000882000F0DDFF17E03B1D1B8807EE903A81
:103A2000F8EE677A0C4A42F27C531344C3ED007AF5
:103A30003B1D1B881946892000F0CAFF04E00023C3
:103A400087F84F3200E000BF97F84F32184607F56D
:103A50001477BD4680BD00BF502000240000C8423E
:103A600080B584B000AF03463960FB800123FB734F
:103A7000FA88024B134440F2391201E0BF63FFFFA2
:103A8000934200F2098501A151F823F0753F000827
:103A90009944000899440008873F000899440008A9
:103AA0009944000899440008994400089944000882
:103AB000993F0008AB3F000899440008994400086A
:103AC000BD3F000899440008994400089944000843
:103AD0009944000899440008CF3F00089944000821
:103AE0009944000899440008994400089944000842
:103AF0009944000899440008994400089944000832
:103B00009944000899440008994400089944000821
:103B10009944000899440008994400089944000811
:103B20009944000899440008994400089944000801
:103B300099440008994400089944000899440008F1
:103B400099440008994400089944000899440008E1
:103B500099440008994400089944000899440008D1
:103B600099440008994400089944000899440008C1
:103B700099440008994400089944000899440008B1
:103B800099440008994400089944000899440008A1
:103B90009944000899440008994400089944000891
:103BA0009944000899440008994400089944000881
:103BB0009944000899440008994400089944000871
:103BC0009944000899440008994400089944000861
:103BD0009944000899440008994400089944000851
:103BE0009944000899440008994400089944000841
:103BF0009944000899440008994400089944000831
:103C00009944000899440008994400089944000820
:103C10009944000899440008994400089944000810
:103C20009944000899440008994400089944000800
:103C300099440008994400089944000899440008F0
:103C400099440008994400089944000899440008E0
:103C500099440008994400089944000899440008D0
:103C600099440008994400089944000899440008C0
:103C700099440008994400089944000899440008B0
:103C800099440008994400089944000899440008A0
:103C90009944000899440008994400089944000890
:103CA0009944000899440008994400089944000880
:103CB000E13F0008F33F00089944000899440008D8
:103CC0009944000899440008994400089944000860
:103CD00003400008274000081540000899440008E8
:103CE00099440008374000085B400008494000083C
:103CF00099440008994400086B4000087D40000882
:103D00009944000899440008994400088D4000082F
:103D10009F4000089944000899440008994400080D
:103D200099440008994400089944000899440008FF
:103D300099440008AD400008BB400008C940000895
:103D4000D7400008E5400008F340000801410008A2
:103D50000F4100081D4100082B41000839410008AF
:103D600047410008554100086341000871410008BF
:103D70007F4100088D4100089B410008A9410008CF
:103D8000B7410008C9410008D7410008994400081C
:103D9000994400089944000899440008994400088F
:103DA000994400089944000899440008E541000836
:103DB000F14100089944000899440008994400081A
:103DC000994400089944000899440008994400085F
:103DD000994400089944000899440008994400084F
:103DE000994400089944000899440008994400083F
:103DF000994400089944000899440008FD410008CE
:103E00000B4200081942000827420008354200080A
:103E1000414200085B4200084D42000899440008F6
:103E200099440008994400089944000899440008FE
:103E300099440008994400089944000899440008EE
:103E400099440008994400089944000887420008F2
:103E5000A342000893420008B142000899440008B8
:103E600099440008994400089944000899440008BE
:103E700099440008BF420008CD420008DB42000818
:103E8000F142000899440008994400089944000848
:103E90009944000899440008994400080743000821
:103EA0001343000899440008994400089944000805
:103EB0006D4200089944000899440008994400089C
:103EC000994400089944000899440008994400085E
:103ED000994400089944000899440008994400084E
:103EE00099440008994400089944000829430008AF
:103EF000994400089944000899440008994400082E
:103F0000994400089944000899440008994400081D
:103F10009944000835430008474300085943000806
:103F20006B4300089944000899440008994400082C
:103F30009944000899440008994400087D4300080A
:103F4000A1430008C5430008E9430008994400085C
:103F500099440008994400089944000899440008CD
:103F60009944000805440008294400085944000801
:103F70007D440008934A42F2482313441B789AB2C6
:103F80003B681A808BE28F4A42F24B2313441B7822
:103F90009AB23B681A8082E28A4A42F27C23134436
:103FA0001B689AB23B681A8079E2864A42F28823FB
:103FB00013441B789AB23B681A8070E2814A42F23D
:103FC0008B2313441B789AB23B681A8067E27D4AC0
:103FD00042F2BC2313441B689AB23B681A805EE22B
:103FE000784A41F6107313441B789AB23B681A80E2
:103FF00055E2744B03F5FC531B789AB23B681A8068
:104000004DE2704A41F6576313441B789AB23B68FD
:104010001A8044E26B4A41F6566313441B789AB205
:104020003B681A803BE2674A41F65A6313441A8898
:104030003B681A8033E2634A41F6836313441B787A
:104040009AB23B681A802AE25E4A41F682631344C0
:104050001B789AB23B681A8021E25A4A41F686637D
:1040600013441A883B681A8019E2564A41F6AF6336
:1040700013441B789AB23B681A8010E2514A41F609
:10408000B46313441A883B681A8008E24D4A41F62B
:10409000DB6313441B789AB23B681A80FFE1494BFB
:1040A00003F5F7531A883B681A80F8E1454B93F8FB
:1040B0006A309AB23B681A80F1E1424B93F86B3058
:1040C0009AB23B681A80EAE13E4B93F86C309AB2A0
:1040D0003B681A80E3E13B4B93F86D309AB23B6842
:1040E0001A80DCE1374B93F86E309AB23B681A8045
:1040F000D5E1344B93F86F309AB23B681A80CEE129
:10410000304B93F870309AB23B681A80C7E12D4B60
:1041100093F871309AB23B681A80C0E1294B93F84A
:1041200072309AB23B681A80B9E1264B93F873302B
:104130009AB23B681A80B2E1224B93F874309AB27B
:104140003B681A80ABE11F4B93F875309AB23B681D
:104150001A80A4E11B4B93F876309AB23B681A8020
:104160009DE1184B93F877309AB23B681A8096E13C
:10417000144B93F878309AB23B681A808FE1114B58
:1041800093F879309AB23B681A8088E10D4B93F826
:104190007A309AB23B681A8081E10A4B93F87B30FF
:1041A0009AB23B681A807AE1064B93F87C309AB257
:1041B0003B681A8073E1034B93F87D309AB23B68F9
:1041C0001A806CE150200024A04B93F87E309AB204
:1041D0003B681A8063E19D4B93F87F309AB23B684D
:1041E0001A805CE1994BB3F86E233B681A8056E164
:1041F000964BB3F86C233B681A8050E1934B93F8CD
:104200008B339AB23B681A8049E1904B93F88C3318
:104210009AB23B681A8042E18C4B93F88D339AB284
:104220003B681A803BE1894B93F88E339AB23B6826
:104230001A8034E1854BB3F870263B681A802EE172
:10424000824BB3F86C263B681A8028E17F4B93F8C9
:1042500086339AB23B681A8021E17C4A41F63813D2
:1042600013441B689AB23B681A8018E1774A41F6FA
:10427000681313441B68764AA2FB0323DB089AB237
:104280003B681A800BE1714BB3F88E263B681A80AD
:1042900005E10EF0D1F903461B0C9AB23B681A8077
:1042A000FDE00EF0C9F903469AB23B681A80F6E0C9
:1042B000664B93F88A369AB23B681A80EFE0634BFC
:1042C00093F871399AB23B681A80E8E05F4B93F833
:1042D00072399AB23B681A80E1E05C4BD3F86039DE
:1042E0005B4AA2FB0323DB089AB23B681A80D6E044
:1042F000564BD3F88839564AA2FB0323DB089AB2FF
:104300003B681A80CBE0514B9B7A9AB23B681A808B
:10431000C5E04E4BD3F808394D4AA2FB0323DB0816
:104320009AB23B681A80BAE0484B1B7A9AB23B6853
:104330001A80B4E0454A42F2484313441B789AB2CB
:104340003B681A80ABE0414A42F2744313441B7845
:104350009AB23B681A80A2E03C4A42F28E43134470
:104360001B789AB23B681A8099E0384A42F29A4325
:1043700013441B789AB23B681A8090E0334A42F2A9
:1043800018531344D3ED007A9FED327A67EE877AA3
:10439000FCEEE77A17EE903A9AB23B681A807EE01C
:1043A0002A4A42F21C531344D3ED007A9FED297A36
:1043B00067EE877AFCEEE77A17EE903A9AB23B689E
:1043C0001A806CE0214A42F220531344D3ED007A64
:1043D0009FED207A67EE877AFCEEE77A17EE903A47
:1043E0009AB23B681A805AE0184A42F23C5313448E
:1043F000D3ED007AFCEEE77A17EE903A9AB23B687A
:104400001A804CE0114A42F258531344D3ED007A1B
:104410009FED107A67EE877AFCEEE77A17EE903A16
:104420009AB23B681A803AE0084A42F25C5313445D
:10443000D3ED007A9FED077A67EE877AFCEEE77A94
:1044400017EE903A9AB23B681A8028E05020002478
:10445000CDCCCCCC0000C842134A42F26053134486
:10446000D3ED007A9FED117A67EE877AFCEEE77A5A
:1044700017EE903A9AB23B681A8010E00A4A42F26C
:104480007C531344D3ED007AFCEEE77A17EE903AB2
:104490009AB23B681A8002E00023FB7300BFFB7BEB
:1044A00018461037BD4680BD502000240000C84289
:1044B00080B485B000AF0346FB800B46BB8013463B
:1044C0007B800123FB73FB7B18461437BD465DF8E8
:1044D000047B704780B584B000AF78600B467B806A
:1044E0000023FB810023BB8131E0FA897B889A425B
:1044F00002D3FB89DBB273E0BA893B491346DB0088
:104500009B1A1B01CA1841F6127313441B881B0A1D
:104510009AB2FB89591CF98119467B680B44D2B2C7
:104520001A70BA8930491346DB009B1A1B01CA185E
:1045300041F6127313441A88FB89591CF9811946F4
:104540007B680B44D2B21A70BB890133BB81BB8933
:10455000012BCAD9FB895A1CFA811A467B6813447D
:1045600000221A70FA897B889A4202D3FB89DBB257
:1045700036E0FB897A68134400221A700023FB722C
:1045800026E0FB7A184A89339B0113440C331868E0
:10459000FB7A154A9B011A4442F2502313441B88AC
:1045A000194617F09FFB03461A46FB7A02FA03F1FD
:1045B000FB897A6813441B785AB24BB2134359B241
:1045C000FB897A681344CAB21A70FB7A0133FB7212
:1045D000FB7A072BD5D9FB890133FB81FB89DBB241
:1045E00018461037BD4680BD5020002480B584B0E9
:1045F00000AF78600B467B807B88072B02D87B88D6
:10460000DBB276E00023FB7332E0FB7B5B001A46F3
:104610007B6813441B781B021AB2FB7B5B000133DF
:1046200079680B441B781BB213431BB27B817B89D7
:10463000B3F5805F19D2FB7B012B0BD8FB7B2F4A94
:104640002C2101FB03F31A4441F65A6313447A897F
:104650001A800AE0FB7B294A2C2101FB03F31A4450
:1046600041F65C6313447A891A80FB7B0133FB7348
:10467000FB7B032BC9D97B68083300221A700923FE
:104680007B737B7B9BB27A889A4201D87B7B30E03C
:104690000023BB7326E07B7B7A6813441B781A46A1
:1046A000BB7B42FA03F3DAB2BB7B02F00102D0B269
:1046B000124A642101FB03F31A4441F6F4731344D4
:1046C00002461A70BB7B642202FB03F241F6E873D8
:1046D00013440A4A13440433184609F08DFFBB7B88
:1046E0000133BB73BB7B052BD5D97B7B01337B733C
:1046F0007B7B18461037BD4680BD00BF502000248C
:1047000080B584B000AF78600B467B8013463B8059
:104710000023FB737B681B78032B0BD0032B63DC1C
:10472000012B63D0022B00D05EE0374B002283F8D0
:10473000DA285EE0344A41F6981313441B78184691
:104740000AF062FD0346002B2FD02F4B93F8AC17D5
:104750002D4A41F6991313440A461A702A4B93F8CE
:10476000AD17294A41F69A1313440A461A70264A8D
:1047700041F64C63134400221A80234A41F6711318
:10478000134401221A70204A41F670131344002288
:104790001A701D4B0022A3F8AC281B4B002283F893
:1047A0009C261A480BF0A4FA22E0174A41F6981307
:1047B00013441B7818460EF0CBFA0346002B17D192
:1047C000114A41F67113134401221A700E4A41F640
:1047D0007013134400221A700B4B002283F89C269E
:1047E0000A480BF085FA03E000BF02E000BF00E0DA
:1047F00000BF054B5B7A002B01D006F025FDFB7B4B
:1048000018461037BD4680BD50200024A83900242A
:1048100080B582B000AF786005F022FF0023184613
:104820000837BD4680BD80B485B000AF03460A4658
:10483000FB801346BB800023FB73FB7B18461437B9
:10484000BD465DF8047B704780B483B000AF03467B
:10485000FB71094AFB7982F8C838074B93F8C838CE
:10486000FA799A420CBF01230023DBB218460C37B9
:10487000BD465DF8047B70475020002480B586B0AB
:1048800000AF78601A4B7B6116F012FE07F10C0343
:104890001946184816F0A8FE0346002B03D016F060
:1048A00041FE034620E000237B8217E07B8A9B00C9
:1048B0007A6813441B681A467969012016F08AFD4C
:1048C0000346002B03D17B6904337B6103E016F0C0
:1048D00029FE034608E07B8A01337B827B8A912B89
:1048E000E4D916F007FE002318461837BD4680BDF0
:1048F00000F003082407002480B584B000AF78607E
:1049000039607B68912B1AD80F4A7B6852F82330A4
:10491000FB600D497B683A6841F823200A48FFF79D
:10492000ADFF0346FB72FB7A002B06D006497B687D
:10493000FA6841F82320FB7A02E0FB7A00E00023CA
:1049400018461037BD4680BDDC04002480B582B017
:1049500000AF78600B46FB7009F072F803460C4A12
:1049600013600C4AFB7813700B4B0022A3F8242130
:10497000002200214EF6167008F082FF0346002B3D
:1049800001D1012300E0002318460837BD4680BD51
:10499000184F00245E0800243807002480B582B038
:1049A00000AF92220949002000F0D6F80346FB71BF
:1049B000FB79002B05D14FF41272FF21034821F03F
:1049C000B9FEFB7918460837BD4680BD1C4F002450
:1049D00080B582B000AF03463960FB80FB88064992
:1049E0003A6841F82320FB88184600F05BF9012360
:1049F00018460837BD4680BD1C4F002480B485B0E2
:104A000000AF0346FB800023FB60FB88054A52F899
:104A10002330FB60FB6818461437BD465DF8047B05
:104A2000704700BF1C4F0024B0B588B000AF0346EC
:104A30003960FB801346BB806B461D46BB88922BBA
:104A400004D8FA88BB881344922B01DD002375E05B
:104A5000BB883D4A127802FB03F4631E7B61234648
:104A600018464FF000014FF000024FF00003CB005A
:104A700043EA5073C200234618464FF000014FF03E
:104A800000024FF00003CB0043EA5073C2002346FC
:104A90000733DB08DB00ADEB030D6B4600333B61F6
:104AA0000023BB610023FB612CE0FB699B003A689B
:104AB00013441968244B1B781C46234B1B781A4659
:104AC000BB69B3FBF2F002FB00F29B1AE31A013B55
:104AD000DB0021FA03F3D9B23A69BB6913440A46F1
:104AE0001A70BB690133BB61174B1B781A46BB694F
:104AF000B3FBF2F102FB01F29B1A002BD5D1FB694B
:104B00000133FB61BB88FA699A42CED3FB880E4A17
:104B1000127802FB03F20D4B1343FB600C4B186839
:104B20003A69BB69F96811F05BFA0346002B04D0BF
:104B3000084809F087F8002300E00123AD46184635
:104B40002037BD46B0BD00BF5E08002400F07F00E6
:104B5000184F0024809E0208B0B58AB000AF03460B
:104B60003960FB801346BB806B461D46BB88922B89
:104B700004D8FA88BB881344922B01DD00236FE030
:104B80003A4B1B789BB2BA8812FB03F3FB83FC8B76
:104B90002346013BBB61A0B24FF000014FF0000281
:104BA0004FF00003CB0043EA5073C200A0B24FF0B5
:104BB00000014FF000024FF00003CB0043EA5073B6
:104BC000C20023460733DB08DB00ADEB030D6B4669
:104BD00000337B61FB88254A127802FB03F2244BE9
:104BE00013433B61234B18687A69FB8B39690FF0DB
:104BF00041FE0346FB73FB7B002B2DD100233B6260
:104C000000237B6222E07A693B6A13441B781A0610
:104C10003B6A01337969CB5C1B041A433B6A02335C
:104C20007969CB5C1B0213433A6A033279698A5C67
:104C300043EA02017B6A9B003A6813440A461A6001
:104C40003B6A04333B627B6A01337B62BB887A6ACE
:104C50009A42D8D3012303E0074808F0F3FF00236A
:104C6000AD4618462837BD46B0BD00BF5E080024DB
:104C700000F07F00184F00249C9E020880B582B08F
:104C800000AF064B7B60064B1B68796818460EF038
:104C900089FD034618460837BD4680BD00F07F00F9
:104CA000184F002480B483B000AF0346FB800C4B48
:104CB000B3F82431912B0CD8094BB3F824315A1C8A
:104CC00091B2074AA2F824111946054AFB8822F836
:104CD000113000BF0C37BD465DF8047B704700BF44
:104CE0003807002480B500AF054B0022A3F824212B
:104CF0004FF492720021024821F01CFD00BF80BDDC
:104D00003807002480B500AF0E4BB3F82431002BD8
:104D100015D092220C490020FFF786FE0346002B97
:104D200009D00A4808F08EFFFFF7DCFF054B002290
:104D3000A3F8242104E0064808F084FF00E000BF47
:104D400080BD00BF380700241C4F0024B89E020815
:104D5000CC9E020880B400AFFEE7000080B500AF33
:104D6000014808F06FFFFEE7E89E020880B500AF3B
:104D7000014808F067FFFEE7089F020880B500AF12
:104D8000014808F05FFFFEE72C9F020880B500AFE6
:104D9000014808F057FFFEE74C9F020880B400AFBF
:104DA00000BFBD465DF8047B704780B400AF00BF14
:104DB000BD465DF8047B704780B400AF00BFBD46C0
:104DC0005DF8047B704780B500AF11F07DFB00BF3C
:104DD00080BD000080B400AF224A42F24443134435
:104DE0001B78002B1FD01F4A42F2484313441B7804
:104DF000002B18D11B4A42F2AC4313441B685A1CC7
:104E0000184942F2AC430B441A60164A42F24C4332
:104E100013441B681B685B6A1946124A42F2B0438E
:104E2000134419600BE00F4A42F2AC4313440022D2
:104E30001A600C4A42F2B043134400221A604FF049
:104E4000B043D3F8883003F00403002B04D04FF0B4
:104E5000B0430422C3F8882000BFBD465DF8047B40
:104E6000704700BF5020002480B400AF4FF0B04323
:104E7000D3F8883003F01003002B04D04FF0B04378
:104E80001022C3F8882000BFBD465DF8047B704740
:104E900080B400AF454A42F2444313441B78002BD0
:104EA00014D0424A42F2484313441B7803F00103F2
:104EB000002B11D03D4A42F2A44313441B685A1CF4
:104EC0003A4942F2A4430B441A6005E0374A42F2E1
:104ED000A443134400221A604FF0B043D3F8883043
:104EE00003F04003002B04D04FF0B0434022C3F83E
:104EF00088202E4A42F2444313441B78002B14D0DE
:104F00002A4A42F2484313441B7803F00203002B61
:104F100011D0264A42F2A84313441B685A1C234965
:104F200042F2A8430B441A6005E0204A42F2A8432B
:104F3000134400221A604FF0B043D3F8883003F0D6
:104F40008003002B04D04FF0B0438022C3F88820A8
:104F50004FF0B043D3F8883003F02003002B04D087
:104F60004FF0B0432022C3F888204FF0B043D3F86D
:104F7000883003F48073002B05D04FF0B0434FF41A
:104F80008072C3F888204FF0B043D3F8883003F420
:104F90000073002B05D04FF0B0434FF40072C3F8FC
:104FA000882000BFBD465DF8047B70475020002478
:104FB00080B500AF4FF4005016F0DFFE00BF80BD9B
:104FC00080B582B000AF464B1B681B6903F001033C
:104FD000002B00F08180424B1B6800225A62404B3C
:104FE0001B681A683E4B1B6822F001021A603C4B9A
:104FF0001B681A693A4B1B6822F001021A61394B8F
:10500000002283F8A026374BB3F8AA38022B63D9C5
:10501000344BD3F884365A8A013292B25A82314BD9
:1050200093F8AA262F4B93F8C8389A4204D02D4BF8
:1050300093F8AA36002B4FD12A4BB3F8AA38013B7C
:10504000284A134493F8AA361B021AB2254BB3F828
:10505000AA38023B23490B4493F8AA361BB21343E8
:105060001BB2FB801F4BB3F8AA38023B9BB2194618
:105070001D4809F0C1FF03461A46FB8893421AD126
:10508000184B194AC3F8CC28164B184AC3F8D02835
:10509000144BB3F8AA38DAB2124B83F8D428114B68
:1050A000B3F8AC38DAB20F4B83F8D5280D4B012298
:1050B00083F8A0260AE00B4B002283F8A026094BB8
:1050C000D3F884369A8A013292B29A82054BD3F889
:1050D0008436002283F8202000BF0837BD4680BDFB
:1050E0008C54002450200024FA260024FA2700249F
:1050F00080B500AF264B002283F89E2625480DF090
:1051000003FC25481DF03AFB244B1B681B6903F088
:105110000103002B39D0214B1B6800225A621F4B20
:105120001B681A681D4B1B6822F001021A601B4B9A
:105130001B681A69194B1B6822F001021A61144B93
:10514000012283F89B26124BB3F8AA38042B04D90A
:105150000F4BB3F8AA38FF2B08D90D4B0022A3F848
:10516000AA280B4B002283F89B2605E005F078FA6D
:10517000074B0022A3F8AA28054B002283F89D269E
:10518000074B1B680133064A136000BF80BD00BF98
:1051900050200024D8260024185200241C5A002431
:1051A000C008002480B58AB000AF78607B68D3F86F
:1051B0008830222B40F0A6807B689B68B3F5805F27
:1051C00017D17B681B69002B13D100237B627B689E
:1051D0009B6D3B627B681B685B6A9BB2C3F30803F1
:1051E0009AB23B6A1A807B689B6D9A1C7B689A65B1
:1051F00026E07B689B6D7B6200233B627B689B683B
:10520000B3F5805F07D07B689B68002B0AD17B6871
:105210001B69002B06D17B681B685B6ADAB27B6A6C
:105220001A7008E07B681B685B6ADBB203F07F03DF
:10523000DAB27B6A1A707B689B6D5A1C7B689A6530
:105240007B68B3F85E309BB2013B9BB27A6819462B
:10525000A2F85E10002B53D17B681B681A687B682C
:105260001B6822F020021A607B681B681A687B6842
:105270001B6822F480721A607B681B689A687B68DE
:105280001B6822F001029A607B682022C3F8882004
:105290007B68DB6E012B2ED17B680022DA667B688F
:1052A0001B68FB60FB6853E8003FBB60BB6823F0F2
:1052B0001003FB617B681B681A46FB69BB617A615E
:1052C0007969BA6941E800233B613B69002BE6D16B
:1052D0007B681B68DB6903F01003102B03D17B682C
:1052E0001B6810221A627B68B3F85C301946786834
:1052F00000F0B0FA02E0786800F072FB002302E0F0
:10530000002300E0022318462837BD4680BD000078
:1053100080B594B000AF6B4B1B68DB69FB646A4BD4
:105320001A68FB6C1340694A1360684B1B68002BBA
:105330004BD0FB6C03F00103002B0DD0614BD3F875
:105340008C3043F001035F4AC2F88C30604B9B897C
:1053500001339AB25E4B9A81FB6C03F00403002B7D
:105360000DD0584BD3F88C3043F00203554AC2F8A5
:105370008C30574BDB8901339AB2554BDA81FB6C89
:1053800003F00203002B0DD0514B1B8A01339AB25C
:105390004F4B1A824B4BD3F88C3043F00403494AED
:1053A000C2F88C30FB6C03F00803002B0DD0484B87
:1053B0005B8A01339AB2464B5A82424BD3F88C3007
:1053C00043F008033F4AC2F88C30414B93F88936CA
:1053D000022B40F01A823D4B1B68002B00F0098124
:1053E000384BD3F88C30002B00F01382FB6C03F0A9
:1053F0002003002B09D0334B1B681B6803F02003EC
:10540000002B02D02F48FFF7CDFE2E4B1B689B6868
:1054100003F04003402B0CBF01230023DBB21A46EC
:105420002C4B1A60274BD3F88C3003F00803002B69
:1054300004D1284B1B68002B00F0D280214B1B6845
:105440009B6803F04003402B40F0C6801D4B1B6857
:1054500008333B633B6B53E8003FFB62FB6A23F07E
:1054600040033B64174B1B6808333A6CFA63BB6319
:10547000B96BFA6B41E800237B637B6B002BE5D1B2
:10548000104BDB6F002B00F0A3800E4BDB6F93F80B
:105490003530DBB2022B1FD00A4B0022A3F85E206E
:1054A000084B0022A3F85620064BDB6F80225A657A
:1054B000074B9B8A01339AB2054B9A82014800F050
:1054C000D9FA95E0BC5B00240000002468080024A1
:1054D0005020002460080024844BDB6F042283F8F2
:1054E0003520824BDB6F1B68814A934259D07F4B3A
:1054F000DB6F1B687F4A934253D07C4BDB6F1B688A
:105500007D4A93424DD0794BDB6F1B687B4A9342B7
:1055100047D0764BDB6F1B68794A934241D0734B7F
:10552000DB6F1B68774A93423BD0704BDB6F1B6885
:10553000754A934235D06D4BDB6F1B68734A9342BB
:105540002FD06A4BDB6F1B68714A934229D0674B9F
:10555000DB6F1B686F4A934223D0644BDB6F1B6881
:105560006D4A93421DD0614BDB6F1B686B4A9342BF
:1055700017D05E4BDB6F1B68694A934211D05B4BBF
:10558000DB6F1B68674A93420BD0584BDB6F1B687D
:10559000654A934205D0554BDB6F1B68634A9342C3
:1055A0000BD1524BDB6F1B681A68504BDB6F1B68CB
:1055B00022F001021A6000BF1AE04C4BDB6F1B683F
:1055C0001A684A4BDB6F1B6822F001021A600FE079
:1055D000464800F04FFA0BE0444800F04BFA07E071
:1055E000424800F047FA414B0022C3F88C2010E1FA
:1055F0000FE13E4BDB6E012B40F09C80FB6C03F017
:105600001003002B00F09680384B1B68DB69484A7A
:105610001360364B1B685B6A454A1360334BDB6F84
:105620001B685B689BB2002B00F084802F4BDB6F04
:105630001B685B689AB22D4BB3F85C309A4279D202
:105640002A4BDB6F1B685B689AB2284BA3F85E207D
:10565000264B1B680833FB61FB6953E8003FBB61C5
:10566000BB6923F04003BB64204B1B680833BA6C52
:10567000BA627B62796ABA6A41E800233B623B6A9C
:10568000002BE5D1194B2022C3F88820174B0022AC
:10569000DA66164B1B68BB60BB6853E8003F7B6053
:1056A0007B6823F010037B64104B1B681A467B6CED
:1056B0007B613A6139697A6941E80023FB60FB68E4
:1056C000002BE6D1094BDB6F184613F001FE074BA8
:1056D000B3F85C20054BB3F85E309BB2D31A9BB293
:1056E0001946024800F0B6F896E000BFBC5B002403
:1056F00010000240280002404000024058000240D2
:105700007000024088000240A0000240B800024041
:1057100010040240280402404004024058040240A1
:105720007004024088040240A0040240B804024011
:1057300064080024FB6C03F08003002B46D0384B38
:105740001B681B6803F08003002B3FD0344BD3F859
:105750008430212B5FD1324B9B68B3F5805F0FD132
:105760002F4B1B69002B0BD12D4B1B6D1A782C4B2B
:105770001B685A622A4B1B6D0233294A136508E0E5
:10578000274B1B6D5A1C26490A651A78244B1B6847
:105790005A62234BB3F856309BB2013B9BB2204A6E
:1057A0001946A2F85610002B35D11D4B1B681A68FC
:1057B0001B4B1B6822F080021A60194B1B681A6889
:1057C000174B1B6842F040021A6024E0FB6C03F0A8
:1057D0004003002B16D0124B1B681B6803F04003DC
:1057E000002B0FD00E4B2022C3F884200C4B1B68DB
:1057F0001A680B4B1B6822F040021A60084800F040
:10580000F9F809E0074B1B6806E007480CF0FCFFBD
:1058100002E000BF00E000BF5037BD4680BD00BFC2
:10582000BC5B002464080024D826002480B500AFA7
:10583000024814F0AFFA00BF80BD00BF2853002417
:1058400080B500AF024814F0A5FA00BF80BD00BFCC
:105850001059002480B584B000AF78600B467B807F
:105860007B681B68574A934240F09C80564B93F8E4
:105870008936022B40F09680534A7B88A2F8AA38DA
:10588000514B002283F8A0264F4BB3F8AA38022BC5
:1058900063D94D4BD3F884365A8A013292B25A8278
:1058A000494B93F8AA26484B93F8C8389A4204D03B
:1058B000454B93F8AA36002B4FD1434BB3F8AA3887
:1058C000013B414A134493F8AA361B021AB23E4BDD
:1058D000B3F8AA38023B3C490B4493F8AA361BB2F2
:1058E00013431BB2FB81384BB3F8AA38023B9BB27F
:1058F0001946364809F080FB03461A46FB89934255
:105900001AD1314B314AC3F8CC282F4B304AC3F857
:10591000D0282D4BB3F8AA38DAB22B4B83F8D42811
:10592000294BB3F8AC38DAB2274B83F8D528264B8D
:10593000012283F8A0260AE0234B002283F8A02648
:10594000214BD3F884369A8A013292B29A821E4B46
:10595000D3F88436002283F820201E480CF0D4FFB0
:10596000194BB3F8AA38042B04D9174BB3F8AA384B
:10597000FF2B08D9144B0022A3F8AA28124B0022AF
:1059800083F89B2605E0104B012283F89B2604F048
:1059900067FE4FF480710D480DF08CFB0A4B00221E
:1059A00083F88B267B681B680B4A934205D17B8862
:1059B0001A460021094809F063FA00BF1037BD46B6
:1059C00080BD00BF0044004050200024FA2600247F
:1059D000FA270024D826002400500040584600240E
:1059E00080B483B000AF786000BF0C37BD465DF86F
:1059F000047B704780B584B000AF78607B681B681B
:105A0000164A93421ED1164B93F88936022B19D1B0
:105A10000023FB6003E000BFFB680133FB60FB6811
:105A2000312BF8D90AF0A6FE0346002219460D488C
:105A30000DF076F80C4B4FF400229A61084B0022CF
:105A400083F89E267B681B68084A934202D1084867
:105A500009F00BFA00BF1037BD4680BD004400407E
:105A600050200024D82600240010025800100140C5
:105A70005846002480B592B002AF78607B681B68FE
:105A80009F4A934240F070810023FB6007F11003AE
:105A90002E220021184620F04DFE7B68D3F88C2082
:105AA0007B68DB6F596D7B689B6F5B6D07F10C004A
:105AB00000930B46934908F001F90346FB87FB8FDF
:105AC00007F10C02D0187B681B68DB691A468E4907
:105AD00008F0F4F803469AB2FB8F1344FB877B6807
